{
  "contractName": "AppProxyPinned",
  "abi": [
    {
      "constant": true,
      "inputs": [],
      "name": "isDepositable",
      "outputs": [
        {
          "name": "",
          "type": "bool"
        }
      ],
      "payable": false,
      "stateMutability": "view",
      "type": "function"
    },
    {
      "constant": true,
      "inputs": [],
      "name": "appId",
      "outputs": [
        {
          "name": "",
          "type": "bytes32"
        }
      ],
      "payable": false,
      "stateMutability": "view",
      "type": "function"
    },
    {
      "constant": true,
      "inputs": [],
      "name": "kernel",
      "outputs": [
        {
          "name": "",
          "type": "address"
        }
      ],
      "payable": false,
      "stateMutability": "view",
      "type": "function"
    },
    {
      "inputs": [
        {
          "name": "_kernel",
          "type": "address"
        },
        {
          "name": "_appId",
          "type": "bytes32"
        },
        {
          "name": "_initializePayload",
          "type": "bytes"
        }
      ],
      "payable": false,
      "stateMutability": "nonpayable",
      "type": "constructor"
    },
    {
      "payable": true,
      "stateMutability": "payable",
      "type": "fallback"
    },
    {
      "anonymous": false,
      "inputs": [
        {
          "indexed": false,
          "name": "sender",
          "type": "address"
        },
        {
          "indexed": false,
          "name": "value",
          "type": "uint256"
        }
      ],
      "name": "ProxyDeposit",
      "type": "event"
    },
    {
      "constant": true,
      "inputs": [],
      "name": "implementation",
      "outputs": [
        {
          "name": "",
          "type": "address"
        }
      ],
      "payable": false,
      "stateMutability": "view",
      "type": "function"
    },
    {
      "constant": true,
      "inputs": [],
      "name": "proxyType",
      "outputs": [
        {
          "name": "proxyTypeId",
          "type": "uint256"
        }
      ],
      "payable": false,
      "stateMutability": "pure",
      "type": "function"
    }
  ],
  "bytecode": "0x608060405234801561001057600080fd5b506040516106f93803806106f98339810160409081528151602083015191830151909201828282600061004b8464010000000061017a810204565b61005d836401000000006101a2810204565b61006f836401000000006101d9810204565b90506000825111156101185761008d816401000000006102a9810204565b151561009857600080fd5b80600160a060020a03168260405180828051906020019080838360005b838110156100cd5781810151838201526020016100b5565b50505050905090810190601f1680156100fa5780820380516001836020036101000a031916815260200191505b50915050600060405180830381855af4915050151561011857600080fd5b50505050610145610137836101d9640100000000026401000000009004565b6401000000006102d6810204565b6101676101596401000000006102fb810204565b6401000000006102a9810204565b151561017257600080fd5b505050610354565b61019f6000805160206106b98339815191528264010000000061032261032682021704565b50565b61019f7fd625496217aa6a3453eecb9c3489dc5a53e6c67b444329ea2b2cbc9ff547639b8264010000000061032261032682021704565b60006101ec64010000000061032a810204565b604080517fbe00bbd80000000000000000000000000000000000000000000000000000000081527ff1f3eb40f5bc1ad1344716ced8b8a0431d840b5783aea1fd01786bc26f35ac0f6004820152602481018590529051600160a060020a03929092169163be00bbd8916044808201926020929091908290030181600087803b15801561027757600080fd5b505af115801561028b573d6000803e3d6000fd5b505050506040513d60208110156102a157600080fd5b505192915050565b600080600160a060020a03831615156102c557600091506102d0565b823b90506000811191505b50919050565b61019f6000805160206106d98339815191528264010000000061032261032682021704565b60006103216000805160206106d98339815191526401000000006102b561035082021704565b905090565b9055565b60006103216000805160206106b98339815191526401000000006102b561035082021704565b5490565b610356806103636000396000f30060806040526004361061006c5763ffffffff7c01000000000000000000000000000000000000000000000000000000006000350416634555d5c9811461012b57806348a0c8dd146101525780635c60da1b1461017b57806380afdea8146101b9578063d4aae0c4146101ce575b60006127105a10156100e357600034118015610086575036155b151561009157600080fd5b6100996101e3565b15156100a457600080fd5b6040805133815234602082015281517f15eeaa57c7bd188c1388020bcadc2c436ec60d647d36ef5b9eb3c742217ddee1929181900390910190a1610128565b6100eb610213565b9050610128816000368080601f0160208091040260200160405190810160405280939291908181526020018383808284375061021d945050505050565b50005b34801561013757600080fd5b5061014061025e565b60408051918252519081900360200190f35b34801561015e57600080fd5b506101676101e3565b604080519115158252519081900360200190f35b34801561018757600080fd5b50610190610213565b6040805173ffffffffffffffffffffffffffffffffffffffff9092168252519081900360200190f35b3480156101c557600080fd5b50610140610263565b3480156101da57600080fd5b5061019061028e565b600061020e7f665fd576fbbe6f247aff98f5c94a561e3f71ec2d3c988d56f12d342396c50cea6102b5565b905090565b600061020e6102b9565b6000610228836102e4565b151561023357600080fd5b612710905060008083516020850186855a03f43d604051816000823e82801561025a578282f35b8282fd5b600190565b600061020e7fd625496217aa6a3453eecb9c3489dc5a53e6c67b444329ea2b2cbc9ff547639b6102b5565b600061020e7f4172f0f7d2289153072b0a6ca36959e0cbe2efc3afe50fc81636caa96338137b5b5490565b600061020e7fdee64df20d65e53d7f51cb6ab6d921a0a6a638a91e942e1d8d02df28e31c038e6102b5565b60008073ffffffffffffffffffffffffffffffffffffffff8316151561030d5760009150610318565b823b90506000811191505b50919050565b5490565b9055565b90555600a165627a7a72305820d982a52c5bd49aa9e1df810f20c8d7d24493905c11a0cbeb492595f21aa4295d00294172f0f7d2289153072b0a6ca36959e0cbe2efc3afe50fc81636caa96338137bdee64df20d65e53d7f51cb6ab6d921a0a6a638a91e942e1d8d02df28e31c038e",
  "source": "pragma solidity 0.4.24;\n\nimport \"../common/UnstructuredStorage.sol\";\nimport \"../common/IsContract.sol\";\nimport \"./AppProxyBase.sol\";\n\n\ncontract AppProxyPinned is IsContract, AppProxyBase {\n    using UnstructuredStorage for bytes32;\n\n    // keccak256(\"aragonOS.appStorage.pinnedCode\")\n    bytes32 internal constant PINNED_CODE_POSITION = 0xdee64df20d65e53d7f51cb6ab6d921a0a6a638a91e942e1d8d02df28e31c038e;\n\n    /**\n    * @dev Initialize AppProxyPinned (makes it an un-upgradeable Aragon app)\n    * @param _kernel Reference to organization kernel for the app\n    * @param _appId Identifier for app\n    * @param _initializePayload Payload for call to be made after setup to initialize\n    */\n    constructor(IKernel _kernel, bytes32 _appId, bytes _initializePayload)\n        AppProxyBase(_kernel, _appId, _initializePayload)\n        public // solium-disable-line visibility-first\n    {\n        setPinnedCode(getAppBase(_appId));\n        require(isContract(pinnedCode()));\n    }\n\n    /**\n     * @dev ERC897, the address the proxy would delegate calls to\n     */\n    function implementation() public view returns (address) {\n        return pinnedCode();\n    }\n\n    /**\n     * @dev ERC897, whether it is a forwarding (1) or an upgradeable (2) proxy\n     */\n    function proxyType() public pure returns (uint256 proxyTypeId) {\n        return FORWARDING;\n    }\n\n    function setPinnedCode(address _pinnedCode) internal {\n        PINNED_CODE_POSITION.setStorageAddress(_pinnedCode);\n    }\n\n    function pinnedCode() internal view returns (address) {\n        return PINNED_CODE_POSITION.getStorageAddress();\n    }\n}\n",
  "sourcePath": "@aragon/os/contracts/apps/AppProxyPinned.sol",
  "compiler": {
    "name": "solc",
    "version": "0.4.24+commit.e67f0147.Emscripten.clang"
  },
  "schemaVersion": "2.0.1",
  "updatedAt": "2019-08-16T16:44:36.235Z"
}