{
  "contractName": "Parliament",
  "abi": [
    {
      "constant": true,
      "inputs": [],
      "name": "count",
      "outputs": [
        {
          "name": "",
          "type": "uint256"
        }
      ],
      "payable": false,
      "stateMutability": "view",
      "type": "function"
    },
    {
      "constant": true,
      "inputs": [],
      "name": "hasInitialized",
      "outputs": [
        {
          "name": "",
          "type": "bool"
        }
      ],
      "payable": false,
      "stateMutability": "view",
      "type": "function"
    },
    {
      "constant": true,
      "inputs": [],
      "name": "USER_ROLE",
      "outputs": [
        {
          "name": "",
          "type": "bytes32"
        }
      ],
      "payable": false,
      "stateMutability": "view",
      "type": "function"
    },
    {
      "constant": true,
      "inputs": [
        {
          "name": "_script",
          "type": "bytes"
        }
      ],
      "name": "getEVMScriptExecutor",
      "outputs": [
        {
          "name": "",
          "type": "address"
        }
      ],
      "payable": false,
      "stateMutability": "view",
      "type": "function"
    },
    {
      "constant": true,
      "inputs": [],
      "name": "getRecoveryVault",
      "outputs": [
        {
          "name": "",
          "type": "address"
        }
      ],
      "payable": false,
      "stateMutability": "view",
      "type": "function"
    },
    {
      "constant": true,
      "inputs": [
        {
          "name": "token",
          "type": "address"
        }
      ],
      "name": "allowRecoverability",
      "outputs": [
        {
          "name": "",
          "type": "bool"
        }
      ],
      "payable": false,
      "stateMutability": "view",
      "type": "function"
    },
    {
      "constant": true,
      "inputs": [],
      "name": "appId",
      "outputs": [
        {
          "name": "",
          "type": "bytes32"
        }
      ],
      "payable": false,
      "stateMutability": "view",
      "type": "function"
    },
    {
      "constant": true,
      "inputs": [
        {
          "name": "",
          "type": "uint256"
        },
        {
          "name": "",
          "type": "address"
        }
      ],
      "name": "uservote",
      "outputs": [
        {
          "name": "",
          "type": "int8"
        }
      ],
      "payable": false,
      "stateMutability": "view",
      "type": "function"
    },
    {
      "constant": true,
      "inputs": [],
      "name": "getInitializationBlock",
      "outputs": [
        {
          "name": "",
          "type": "uint256"
        }
      ],
      "payable": false,
      "stateMutability": "view",
      "type": "function"
    },
    {
      "constant": true,
      "inputs": [
        {
          "name": "",
          "type": "uint256"
        }
      ],
      "name": "points",
      "outputs": [
        {
          "name": "",
          "type": "int256"
        }
      ],
      "payable": false,
      "stateMutability": "view",
      "type": "function"
    },
    {
      "constant": false,
      "inputs": [
        {
          "name": "_token",
          "type": "address"
        }
      ],
      "name": "transferToVault",
      "outputs": [],
      "payable": false,
      "stateMutability": "nonpayable",
      "type": "function"
    },
    {
      "constant": true,
      "inputs": [
        {
          "name": "_sender",
          "type": "address"
        },
        {
          "name": "_role",
          "type": "bytes32"
        },
        {
          "name": "_params",
          "type": "uint256[]"
        }
      ],
      "name": "canPerform",
      "outputs": [
        {
          "name": "",
          "type": "bool"
        }
      ],
      "payable": false,
      "stateMutability": "view",
      "type": "function"
    },
    {
      "constant": true,
      "inputs": [],
      "name": "getEVMScriptRegistry",
      "outputs": [
        {
          "name": "",
          "type": "address"
        }
      ],
      "payable": false,
      "stateMutability": "view",
      "type": "function"
    },
    {
      "constant": true,
      "inputs": [],
      "name": "kernel",
      "outputs": [
        {
          "name": "",
          "type": "address"
        }
      ],
      "payable": false,
      "stateMutability": "view",
      "type": "function"
    },
    {
      "constant": true,
      "inputs": [],
      "name": "isPetrified",
      "outputs": [
        {
          "name": "",
          "type": "bool"
        }
      ],
      "payable": false,
      "stateMutability": "view",
      "type": "function"
    },
    {
      "constant": true,
      "inputs": [],
      "name": "voting",
      "outputs": [
        {
          "name": "",
          "type": "address"
        }
      ],
      "payable": false,
      "stateMutability": "view",
      "type": "function"
    },
    {
      "anonymous": false,
      "inputs": [
        {
          "indexed": false,
          "name": "sender",
          "type": "address"
        },
        {
          "indexed": false,
          "name": "voteID",
          "type": "uint256"
        },
        {
          "indexed": false,
          "name": "commentID",
          "type": "uint256"
        },
        {
          "indexed": false,
          "name": "parentID",
          "type": "uint256"
        },
        {
          "indexed": false,
          "name": "digest",
          "type": "bytes32"
        },
        {
          "indexed": false,
          "name": "hashFunction",
          "type": "uint8"
        },
        {
          "indexed": false,
          "name": "size",
          "type": "uint8"
        }
      ],
      "name": "Comment",
      "type": "event"
    },
    {
      "anonymous": false,
      "inputs": [
        {
          "indexed": false,
          "name": "commentID",
          "type": "uint256"
        },
        {
          "indexed": false,
          "name": "points",
          "type": "int256"
        }
      ],
      "name": "Points",
      "type": "event"
    },
    {
      "anonymous": false,
      "inputs": [
        {
          "indexed": true,
          "name": "executor",
          "type": "address"
        },
        {
          "indexed": false,
          "name": "script",
          "type": "bytes"
        },
        {
          "indexed": false,
          "name": "input",
          "type": "bytes"
        },
        {
          "indexed": false,
          "name": "returnData",
          "type": "bytes"
        }
      ],
      "name": "ScriptResult",
      "type": "event"
    },
    {
      "anonymous": false,
      "inputs": [
        {
          "indexed": true,
          "name": "vault",
          "type": "address"
        },
        {
          "indexed": true,
          "name": "token",
          "type": "address"
        },
        {
          "indexed": false,
          "name": "amount",
          "type": "uint256"
        }
      ],
      "name": "RecoverToVault",
      "type": "event"
    },
    {
      "constant": false,
      "inputs": [
        {
          "name": "_voting",
          "type": "address"
        }
      ],
      "name": "initialize",
      "outputs": [],
      "payable": false,
      "stateMutability": "nonpayable",
      "type": "function"
    },
    {
      "constant": false,
      "inputs": [
        {
          "name": "_voteID",
          "type": "uint256"
        },
        {
          "name": "_parentID",
          "type": "uint256"
        },
        {
          "name": "_digest",
          "type": "bytes32"
        },
        {
          "name": "_hashFunction",
          "type": "uint8"
        },
        {
          "name": "_size",
          "type": "uint8"
        }
      ],
      "name": "comment",
      "outputs": [],
      "payable": false,
      "stateMutability": "nonpayable",
      "type": "function"
    },
    {
      "constant": false,
      "inputs": [
        {
          "name": "_commentID",
          "type": "uint256"
        }
      ],
      "name": "upvote",
      "outputs": [],
      "payable": false,
      "stateMutability": "nonpayable",
      "type": "function"
    },
    {
      "constant": false,
      "inputs": [
        {
          "name": "_commentID",
          "type": "uint256"
        }
      ],
      "name": "downvote",
      "outputs": [],
      "payable": false,
      "stateMutability": "nonpayable",
      "type": "function"
    },
    {
      "constant": false,
      "inputs": [
        {
          "name": "_commentID",
          "type": "uint256"
        }
      ],
      "name": "undovote",
      "outputs": [],
      "payable": false,
      "stateMutability": "nonpayable",
      "type": "function"
    }
  ],
  "bytecode": "0x6080604052620000176401000000006200001d810204565b6200023b565b6200003064010000000062000125810204565b60408051808201909152601881527f494e49545f414c52454144595f494e495449414c495a45440000000000000000602082015290156200010c576040517f08c379a00000000000000000000000000000000000000000000000000000000081526004018080602001828103825283818151815260200191508051906020019080838360005b83811015620000d0578181015183820152602001620000b6565b50505050905090810190601f168015620000fe5780820380516001836020036101000a031916815260200191505b509250505060405180910390fd5b506200012360001964010000000062000154810204565b565b60006200014f60008051602062001c2a833981519152640100000000620016346200023382021704565b905090565b6200016764010000000062000125810204565b60408051808201909152601881527f494e49545f414c52454144595f494e495449414c495a454400000000000000006020820152901562000206576040517f08c379a000000000000000000000000000000000000000000000000000000000815260040180806020018281038252838181518152602001915080519060200190808383600083811015620000d0578181015183820152602001620000b6565b506200023060008051602062001c2a83398151915282640100000000620019af6200023782021704565b50565b5490565b9055565b6119df806200024b6000396000f30060806040526004361061011c5763ffffffff7c010000000000000000000000000000000000000000000000000000000060003504166301ddf070811461012157806306661abd1461013b5780630803fac014610162578063131191611461018b57806317a7ff3e146101a05780632914b9bd146101ca57806332f0a3b51461024c5780637c731758146102615780637e7db6e11461027957806380afdea8146102a7578063850f811b146102bc5780638b3dd749146103065780639799b4e71461031b5780639d4941d814610333578063a1658fad14610361578063a479e508146103d5578063c4d66de8146103ea578063d4aae0c414610418578063de4796ed1461042d578063f31fdad414610442578063fce1ccca1461045a575b600080fd5b34801561012d57600080fd5b5061013960043561046f565b005b34801561014757600080fd5b506101506106d3565b60408051918252519081900360200190f35b34801561016e57600080fd5b506101776106d9565b604080519115158252519081900360200190f35b34801561019757600080fd5b50610150610702565b3480156101ac57600080fd5b5061013960043560243560443560ff60643581169060843516610737565b3480156101d657600080fd5b506040805160206004803580820135601f81018490048402850184019095528484526102239436949293602493928401919081908401838280828437509497506108939650505050505050565b6040805173ffffffffffffffffffffffffffffffffffffffff9092168252519081900360200190f35b34801561025857600080fd5b5061022361099f565b34801561026d57600080fd5b50610139600435610a3d565b34801561028557600080fd5b5061017773ffffffffffffffffffffffffffffffffffffffff60043516610c5a565b3480156102b357600080fd5b50610150610c60565b3480156102c857600080fd5b506102ed60043573ffffffffffffffffffffffffffffffffffffffff60243516610c90565b60408051600092830b90920b8252519081900360200190f35b34801561031257600080fd5b50610150610caf565b34801561032757600080fd5b50610150600435610cda565b34801561033f57600080fd5b5061013973ffffffffffffffffffffffffffffffffffffffff60043516610cec565b34801561036d57600080fd5b50604080516020600460443581810135838102808601850190965280855261017795833573ffffffffffffffffffffffffffffffffffffffff1695602480359636969560649593949201929182918501908490808284375094975061100e9650505050505050565b3480156103e157600080fd5b5061022361119e565b3480156103f657600080fd5b5061013973ffffffffffffffffffffffffffffffffffffffff60043516611260565b34801561042457600080fd5b50610223611357565b34801561043957600080fd5b50610177611382565b34801561044e57600080fd5b506101396004356113b3565b34801561046657600080fd5b50610223611614565b604080517f555345525f524f4c45000000000000000000000000000000000000000000000081528151908190036009018120600080835260208301909352916104be9133918491905b5061100e565b60408051808201909152600f81527f4150505f415554485f4641494c454400000000000000000000000000000000006020820152901515610597576040517f08c379a00000000000000000000000000000000000000000000000000000000081526004018080602001828103825283818151815260200191508051906020019080838360005b8381101561055c578181015183820152602001610544565b50505050905090810190601f1680156105895780820380516001836020036101000a031916815260200191505b509250505060405180910390fd5b506001548211156105a757600080fd5b6000828152600360209081526040808320328452909152812054600190820b90910b126105d357600080fd5b6000828152600360209081526040808320328452909152812054810b900b7fffffffffffffffffffffffffffffffffffffffffffffffffffffffffffffffff14156106355760008281526002602081905260409091208054909101905561064b565b6000828152600260205260409020805460010190555b6000828152600360209081526040808320328452825280832080547fffffffffffffffffffffffffffffffffffffffffffffffffffffffffffffff0016600117905584835260028252918290205482518581529182015281517ff723235301d536cfb29fa1eea474e189a6f48d8c0d5796c2f11d3e8e4a57dd37929181900390910190a15050565b60015481565b6000806106e4610caf565b905080158015906106fc5750806106f9611630565b10155b91505090565b604080517f555345525f524f4c4500000000000000000000000000000000000000000000008152905190819003600901902081565b604080517f555345525f524f4c45000000000000000000000000000000000000000000000081528151908190036009018120600080835260208301909352916107849133918491906104b8565b60408051808201909152600f81527f4150505f415554485f4641494c454400000000000000000000000000000000006020820152901515610821576040517f08c379a00000000000000000000000000000000000000000000000000000000081526004018080602001828103825283818151815260200191508051906020019080838360008381101561055c578181015183820152602001610544565b5060018054810190819055604080513281526020810189905280820192909252606082018790526080820186905260ff80861660a0840152841660c0830152517f023bd2ca8ed8c12e789bc22ca48153955537d33b54d946198990c29bda41d6869181900360e00190a1505050505050565b600061089d61119e565b73ffffffffffffffffffffffffffffffffffffffff166304bf2a7f836040518263ffffffff167c01000000000000000000000000000000000000000000000000000000000281526004018080602001828103825283818151815260200191508051906020019080838360005b83811015610921578181015183820152602001610909565b50505050905090810190601f16801561094e5780820380516001836020036101000a031916815260200191505b5092505050602060405180830381600087803b15801561096d57600080fd5b505af1158015610981573d6000803e3d6000fd5b505050506040513d602081101561099757600080fd5b505192915050565b60006109a9611357565b73ffffffffffffffffffffffffffffffffffffffff166332f0a3b56040518163ffffffff167c0100000000000000000000000000000000000000000000000000000000028152600401602060405180830381600087803b158015610a0c57600080fd5b505af1158015610a20573d6000803e3d6000fd5b505050506040513d6020811015610a3657600080fd5b5051905090565b604080517f555345525f524f4c4500000000000000000000000000000000000000000000008152815190819003600901812060008083526020830190935291610a8a9133918491906104b8565b60408051808201909152600f81527f4150505f415554485f4641494c454400000000000000000000000000000000006020820152901515610b27576040517f08c379a00000000000000000000000000000000000000000000000000000000081526004018080602001828103825283818151815260200191508051906020019080838360008381101561055c578181015183820152602001610544565b50600154821115610b3757600080fd5b6000828152600360209081526040808320328452909152812054810b900b1515610b6057600080fd5b6000828152600360209081526040808320328452909152812054810b900b60011415610bbf57600082815260026020526040902080547fffffffffffffffffffffffffffffffffffffffffffffffffffffffffffffffff019055610bd5565b6000828152600260205260409020805460010190555b6000828152600360209081526040808320328452825280832080547fffffffffffffffffffffffffffffffffffffffffffffffffffffffffffffff0016905584835260028252918290205482518581529182015281517ff723235301d536cfb29fa1eea474e189a6f48d8c0d5796c2f11d3e8e4a57dd37929181900390910190a15050565b50600190565b6000610c8b7fd625496217aa6a3453eecb9c3489dc5a53e6c67b444329ea2b2cbc9ff547639b611634565b905090565b6003602090815260009283526040808420909152908252812054900b81565b6000610c8b7febb05b386a8d34882b8711d156f463690983dc47815980fb82aeeff1aa43579e611634565b60026020526000908152604090205481565b6000806000610cfa84610c5a565b60408051808201909152601281527f5245434f5645525f444953414c4c4f57454400000000000000000000000000006020820152901515610d97576040517f08c379a00000000000000000000000000000000000000000000000000000000081526004018080602001828103825283818151815260200191508051906020019080838360008381101561055c578181015183820152602001610544565b50610da061099f565b9250610dab8361163c565b60408051808201909152601a81527f5245434f5645525f5641554c545f4e4f545f434f4e54524143540000000000006020820152901515610e48576040517f08c379a00000000000000000000000000000000000000000000000000000000081526004018080602001828103825283818151815260200191508051906020019080838360008381101561055c578181015183820152602001610544565b5073ffffffffffffffffffffffffffffffffffffffff84161515610eb3576040513031925073ffffffffffffffffffffffffffffffffffffffff84169083156108fc029084906000818181858888f19350505050158015610ead573d6000803e3d6000fd5b50610fa3565b5082610edb73ffffffffffffffffffffffffffffffffffffffff82163063ffffffff61167616565b9150610f0473ffffffffffffffffffffffffffffffffffffffff8216848463ffffffff6117af16565b60408051808201909152601d81527f5245434f5645525f544f4b454e5f5452414e534645525f4641494c45440000006020820152901515610fa1576040517f08c379a00000000000000000000000000000000000000000000000000000000081526004018080602001828103825283818151815260200191508051906020019080838360008381101561055c578181015183820152602001610544565b505b8373ffffffffffffffffffffffffffffffffffffffff168373ffffffffffffffffffffffffffffffffffffffff167f596caf56044b55fb8c4ca640089bbc2b63cae3e978b851f5745cbb7c5b288e02846040518082815260200191505060405180910390a350505050565b6000806110196106d9565b15156110285760009150611196565b611030611357565b905073ffffffffffffffffffffffffffffffffffffffff811615156110585760009150611196565b8073ffffffffffffffffffffffffffffffffffffffff1663fdef910686308761108088611847565b6040517c010000000000000000000000000000000000000000000000000000000063ffffffff871602815273ffffffffffffffffffffffffffffffffffffffff808616600483019081529085166024830152604482018490526080606483019081528351608484015283519192909160a490910190602085019080838360005b83811015611118578181015183820152602001611100565b50505050905090810190601f1680156111455780820380516001836020036101000a031916815260200191505b5095505050505050602060405180830381600087803b15801561116757600080fd5b505af115801561117b573d6000803e3d6000fd5b505050506040513d602081101561119157600080fd5b505191505b509392505050565b6000806111a9611357565b604080517fbe00bbd80000000000000000000000000000000000000000000000000000000081527fd6f028ca0e8edb4a8c9757ca4fdccab25fa1e0317da1188108f7d2dee14902fb60048201527fddbcfd564f642ab5627cf68b9b7d374fb4f8a36e941a75d89c87998cef03bd616024820152905173ffffffffffffffffffffffffffffffffffffffff929092169163be00bbd8916044808201926020929091908290030181600087803b15801561096d57600080fd5b611268610caf565b60408051808201909152601881527f494e49545f414c52454144595f494e495449414c495a4544000000000000000060208201529015611304576040517f08c379a00000000000000000000000000000000000000000000000000000000081526004018080602001828103825283818151815260200191508051906020019080838360008381101561055c578181015183820152602001610544565b5061130d611851565b600080547fffffffffffffffffffffffff00000000000000000000000000000000000000001673ffffffffffffffffffffffffffffffffffffffff92909216919091178155600155565b6000610c8b7f4172f0f7d2289153072b0a6ca36959e0cbe2efc3afe50fc81636caa96338137b611634565b60007fffffffffffffffffffffffffffffffffffffffffffffffffffffffffffffffff6113ad610caf565b14905090565b604080517f555345525f524f4c45000000000000000000000000000000000000000000000081528151908190036009018120600080835260208301909352916114009133918491906104b8565b60408051808201909152600f81527f4150505f415554485f4641494c45440000000000000000000000000000000000602082015290151561149d576040517f08c379a00000000000000000000000000000000000000000000000000000000081526004018080602001828103825283818151815260200191508051906020019080838360008381101561055c578181015183820152602001610544565b506001548211156114ad57600080fd5b60008281526003602090815260408083203284529091528120547fffffffffffffffffffffffffffffffffffffffffffffffffffffffffffffffff90820b90910b136114f857600080fd5b6000828152600360209081526040808320328452909152812054810b900b6001141561155757600082815260026020526040902080547ffffffffffffffffffffffffffffffffffffffffffffffffffffffffffffffffe01905561158c565b600082815260026020526040902080547fffffffffffffffffffffffffffffffffffffffffffffffffffffffffffffffff0190555b6000828152600360209081526040808320328452825280832080547fffffffffffffffffffffffffffffffffffffffffffffffffffffffffffffff001660ff17905584835260028252918290205482518581529182015281517ff723235301d536cfb29fa1eea474e189a6f48d8c0d5796c2f11d3e8e4a57dd37929181900390910190a15050565b60005473ffffffffffffffffffffffffffffffffffffffff1681565b4390565b5490565b5490565b60008073ffffffffffffffffffffffffffffffffffffffff831615156116655760009150611670565b823b90506000811191505b50919050565b6040805173ffffffffffffffffffffffffffffffffffffffff83166024808301919091528251808303909101815260449091019091526020810180517bffffffffffffffffffffffffffffffffffffffffffffffffffffffff167f70a082310000000000000000000000000000000000000000000000000000000017905260009081806117038684611930565b60408051808201909152601c81527f534146455f4552435f32305f42414c414e43455f524556455254454400000000602082015291935091508215156117a5576040517f08c379a00000000000000000000000000000000000000000000000000000000081526004018080602001828103825283818151815260200191508051906020019080838360008381101561055c578181015183820152602001610544565b5095945050505050565b6040805173ffffffffffffffffffffffffffffffffffffffff8416602482015260448082018490528251808303909101815260649091019091526020810180517bffffffffffffffffffffffffffffffffffffffffffffffffffffffff167fa9059cbb0000000000000000000000000000000000000000000000000000000017905260009061183e8582611961565b95945050505050565b8051602002815290565b611859610caf565b60408051808201909152601881527f494e49545f414c52454144595f494e495449414c495a45440000000000000000602082015290156118f5576040517f08c379a00000000000000000000000000000000000000000000000000000000081526004018080602001828103825283818151815260200191508051906020019080838360008381101561055c578181015183820152602001610544565b5061192e611901611630565b7febb05b386a8d34882b8711d156f463690983dc47815980fb82aeeff1aa43579e9063ffffffff6119af16565b565b6000806000806040516020818751602089018a5afa9250600083111561195557805191505b50909590945092505050565b6000806040516020818551602087016000895af160008111156119a5573d8015611992576020811461199b576119a3565b600193506119a3565b600183511493505b505b5090949350505050565b90555600a165627a7a72305820b23447420aa5955801ae999cff2abff4e4ea6dd7187ad6bb2f07488493e794970029ebb05b386a8d34882b8711d156f463690983dc47815980fb82aeeff1aa43579e",
  "source": "pragma solidity ^0.4.24;\n\nimport \"@aragon/os/contracts/apps/AragonApp.sol\";\n\ncontract Parliament is AragonApp {\n  //Events\n  event Comment(address sender, uint256 voteID, uint256 commentID, uint256 parentID, bytes32 digest, uint8 hashFunction, uint8 size);\n  event Points(uint256 commentID, int256 points);\n\n  //Roles\n  bytes32 constant public USER_ROLE = keccak256('USER_ROLE');\n\n  //Storage\n  address public voting;\n  uint256 public count;\n  mapping(uint256 => int256) public points;\n  mapping(uint256 => mapping(address => int8)) public uservote;\n\n  //Functions\n  function initialize(address _voting) onlyInit public {\n    initialized();\n    voting = _voting;\n    count = 0;\n  }\n\n  function comment(uint256 _voteID, uint256 _parentID, bytes32 _digest, uint8 _hashFunction, uint8 _size) external auth(USER_ROLE) {\n    count++;\n    emit Comment(tx.origin, _voteID, count, _parentID, _digest, _hashFunction, _size);\n  }\n\n  function upvote(uint256 _commentID) external auth(USER_ROLE) {\n    require(_commentID <= count);\n    require(uservote[_commentID][tx.origin] < 1);\n    if(uservote[_commentID][tx.origin] == -1){\n      points[_commentID] += 2;\n    } else {\n      points[_commentID] += 1;\n    }\n    uservote[_commentID][tx.origin] = 1;\n    emit Points(_commentID, points[_commentID]);\n  }\n\n  function downvote(uint256 _commentID) external auth(USER_ROLE) {\n    require(_commentID <= count);\n    require(uservote[_commentID][tx.origin] > -1);\n    if(uservote[_commentID][tx.origin] == 1){\n      points[_commentID] -= 2;\n    } else {\n      points[_commentID] -= 1;\n    }\n    uservote[_commentID][tx.origin] = -1;\n    emit Points(_commentID, points[_commentID]);\n  }\n\n  function undovote(uint256 _commentID) external auth(USER_ROLE) {\n    require(_commentID <= count);\n    require(uservote[_commentID][tx.origin] != 0);\n    if(uservote[_commentID][tx.origin] == 1){\n      points[_commentID] -= 1;\n    } else {\n      points[_commentID] += 1;\n    }\n    uservote[_commentID][tx.origin] = 0;\n    emit Points(_commentID, points[_commentID]);\n  }\n}\n",
  "sourcePath": "/home/peter/Documents/Work/Aragon/aragon-parliament/contracts/Parliament.sol",
  "compiler": {
    "name": "solc",
    "version": "0.4.24+commit.e67f0147.Emscripten.clang"
  },
  "schemaVersion": "2.0.1",
  "updatedAt": "2019-08-16T16:44:36.182Z"
}