{
  "contractName": "Template",
  "abi": [
    {
      "constant": true,
      "inputs": [],
      "name": "ens",
      "outputs": [
        {
          "name": "",
          "type": "address"
        }
      ],
      "payable": false,
      "stateMutability": "view",
      "type": "function"
    },
    {
      "constant": true,
      "inputs": [],
      "name": "fac",
      "outputs": [
        {
          "name": "",
          "type": "address"
        }
      ],
      "payable": false,
      "stateMutability": "view",
      "type": "function"
    },
    {
      "constant": true,
      "inputs": [
        {
          "name": "appId",
          "type": "bytes32"
        }
      ],
      "name": "latestVersionAppBase",
      "outputs": [
        {
          "name": "base",
          "type": "address"
        }
      ],
      "payable": false,
      "stateMutability": "view",
      "type": "function"
    },
    {
      "inputs": [
        {
          "name": "ens",
          "type": "address"
        }
      ],
      "payable": false,
      "stateMutability": "nonpayable",
      "type": "constructor"
    },
    {
      "anonymous": false,
      "inputs": [
        {
          "indexed": false,
          "name": "dao",
          "type": "address"
        }
      ],
      "name": "DeployInstance",
      "type": "event"
    },
    {
      "anonymous": false,
      "inputs": [
        {
          "indexed": false,
          "name": "appProxy",
          "type": "address"
        },
        {
          "indexed": false,
          "name": "appId",
          "type": "bytes32"
        }
      ],
      "name": "InstalledApp",
      "type": "event"
    },
    {
      "constant": false,
      "inputs": [],
      "name": "newInstance",
      "outputs": [],
      "payable": false,
      "stateMutability": "nonpayable",
      "type": "function"
    }
  ],
  "bytecode": "0x60806040523480156200001157600080fd5b5060405160208062004213833981016040525160008054600160a060020a038316600160a060020a0319909116178155818160408051808201909152600881527f626172652d6b697400000000000000000000000000000000000000000000000060208201526200008b9064010000000062000197810204565b9050620000a1816401000000006200029d810204565b600160a060020a031663c3b314726040518163ffffffff167c0100000000000000000000000000000000000000000000000000000000028152600401602060405180830381600087803b158015620000f857600080fd5b505af11580156200010d573d6000803e3d6000fd5b505050506040513d60208110156200012457600080fd5b505160018054600160a060020a031916600160a060020a0390921691909117905550505062000152620004c7565b604051809103906000f0801580156200016f573d6000803e3d6000fd5b5060028054600160a060020a031916600160a060020a039290921691909117905550620004d8565b60007f9065c3e7f7b7ef1ef4e53d2d0b8e0cef02874ab020c1ece79d5f0d3d0111c0ba600102826040518082805190602001908083835b60208310620001ef5780518252601f199092019160209182019101620001ce565b51815160209384036101000a6000190180199092169116179052604080519290940182900382208282019790975281840196909652825180820384018152606090910192839052805190959294508493509185019190508083835b602083106200026b5780518252601f1990920191602091820191016200024a565b5181516020939093036101000a6000190180199091169216919091179052604051920182900390912095945050505050565b60008054604080517f0178b8bf0000000000000000000000000000000000000000000000000000000081526004810185905290518392600160a060020a031691630178b8bf91602480830192602092919082900301818787803b1580156200030457600080fd5b505af115801562000319573d6000803e3d6000fd5b505050506040513d60208110156200033057600080fd5b5051604080517f3b3b57de000000000000000000000000000000000000000000000000000000008152600481018690529051600160a060020a0390921691633b3b57de916024808201926020929091908290030181600087803b1580156200039757600080fd5b505af1158015620003ac573d6000803e3d6000fd5b505050506040513d6020811015620003c357600080fd5b5051604080517fc36af4600000000000000000000000000000000000000000000000000000000081529051919250600160a060020a0383169163c36af4609160048082019260009290919082900301818387803b1580156200042457600080fd5b505af115801562000439573d6000803e3d6000fd5b505050506040513d6000823e601f3d908101601f1916820160405260a08110156200046357600080fd5b606082015160808301805191928401918491906401000000008111156200048957600080fd5b820160208101848111156200049d57600080fd5b8151640100000000811182820187101715620004b857600080fd5b50949998505050505050505050565b6040516122738062001fa083390190565b611ab880620004e86000396000f3006080604052600436106100615763ffffffff7c01000000000000000000000000000000000000000000000000000000006000350416633f15457f81146100665780635219cfa5146100a4578063c3b31472146100bb578063c6d2c717146100d0575b600080fd5b34801561007257600080fd5b5061007b6100e8565b6040805173ffffffffffffffffffffffffffffffffffffffff9092168252519081900360200190f35b3480156100b057600080fd5b506100b9610104565b005b3480156100c757600080fd5b5061007b611693565b3480156100dc57600080fd5b5061007b6004356116af565b60005473ffffffffffffffffffffffffffffffffffffffff1681565b600154604080517f21687444000000000000000000000000000000000000000000000000000000008152306004820152905160009283928392839283928392839283928392839273ffffffffffffffffffffffffffffffffffffffff1691632168744491602480830192602092919082900301818787803b15801561018857600080fd5b505af115801561019c573d6000803e3d6000fd5b505050506040513d60208110156101b257600080fd5b5051604080517fde2873590000000000000000000000000000000000000000000000000000000081529051919b5073ffffffffffffffffffffffffffffffffffffffff8c169163de287359916004808201926020929091908290030181600087803b15801561022057600080fd5b505af1158015610234573d6000803e3d6000fd5b505050506040513d602081101561024a57600080fd5b5051604080517f8ea8dc9d0000000000000000000000000000000000000000000000000000000081529051919a5073ffffffffffffffffffffffffffffffffffffffff808c169263be0384789230928f9290831691638ea8dc9d9160048083019260209291908290030181600087803b1580156102c657600080fd5b505af11580156102da573d6000803e3d6000fd5b505050506040513d60208110156102f057600080fd5b5051604080517c010000000000000000000000000000000000000000000000000000000063ffffffff871602815273ffffffffffffffffffffffffffffffffffffffff948516600482015292909316602483015260448201523060648201529051608480830192600092919082900301818387803b15801561037157600080fd5b505af1158015610385573d6000803e3d6000fd5b505050503397506103ca6040805190810160405280600a81526020017f7061726c69616d656e7400000000000000000000000000000000000000000000815250611912565b965061040a6040805190810160405280600681526020017f766f74696e670000000000000000000000000000000000000000000000000000815250611912565b955061044a6040805190810160405280600d81526020017f746f6b656e2d6d616e6167657200000000000000000000000000000000000000815250611912565b94508973ffffffffffffffffffffffffffffffffffffffff166380cd5ac3886104728a6116af565b604080517c010000000000000000000000000000000000000000000000000000000063ffffffff8616028152600481019390935273ffffffffffffffffffffffffffffffffffffffff90911660248301525160448083019260209291908290030181600087803b1580156104e557600080fd5b505af11580156104f9573d6000803e3d6000fd5b505050506040513d602081101561050f57600080fd5b5051935073ffffffffffffffffffffffffffffffffffffffff8a166380cd5ac387610539816116af565b604080517c010000000000000000000000000000000000000000000000000000000063ffffffff8616028152600481019390935273ffffffffffffffffffffffffffffffffffffffff90911660248301525160448083019260209291908290030181600087803b1580156105ac57600080fd5b505af11580156105c0573d6000803e3d6000fd5b505050506040513d60208110156105d657600080fd5b5051925073ffffffffffffffffffffffffffffffffffffffff8a166380cd5ac386610600816116af565b604080517c010000000000000000000000000000000000000000000000000000000063ffffffff8616028152600481019390935273ffffffffffffffffffffffffffffffffffffffff90911660248301525160448083019260209291908290030181600087803b15801561067357600080fd5b505af1158015610687573d6000803e3d6000fd5b505050506040513d602081101561069d57600080fd5b5051600254604080517f5b7b72c10000000000000000000000000000000000000000000000000000000081526000600482018190526024820181905260648201819052600160a483015260c06044830152600960c48301527f41707020746f6b656e000000000000000000000000000000000000000000000060e4830152610100608483015260036101048301527f4150500000000000000000000000000000000000000000000000000000000000610124830152915193955073ffffffffffffffffffffffffffffffffffffffff90921692635b7b72c192610144808201936020939283900390910190829087803b15801561079957600080fd5b505af11580156107ad573d6000803e3d6000fd5b505050506040513d60208110156107c357600080fd5b5051604080517f827f32c000000000000000000000000000000000000000000000000000000000815233600482015260016024820152905191925073ffffffffffffffffffffffffffffffffffffffff83169163827f32c0916044808201926020929091908290030181600087803b15801561083e57600080fd5b505af1158015610852573d6000803e3d6000fd5b505050506040513d602081101561086857600080fd5b5050604080517f3cebb82300000000000000000000000000000000000000000000000000000000815273ffffffffffffffffffffffffffffffffffffffff8481166004830152915191831691633cebb8239160248082019260009290919082900301818387803b1580156108db57600080fd5b505af11580156108ef573d6000803e3d6000fd5b505050508373ffffffffffffffffffffffffffffffffffffffff1663c4d66de8846040518263ffffffff167c0100000000000000000000000000000000000000000000000000000000028152600401808273ffffffffffffffffffffffffffffffffffffffff1673ffffffffffffffffffffffffffffffffffffffff168152602001915050600060405180830381600087803b15801561098e57600080fd5b505af11580156109a2573d6000803e3d6000fd5b5050604080517fe37ff29f00000000000000000000000000000000000000000000000000000000815273ffffffffffffffffffffffffffffffffffffffff8581166004830152600160248301526000604483018190529251908716945063e37ff29f93506064808301939282900301818387803b158015610a2257600080fd5b505af1158015610a36573d6000803e3d6000fd5b5050604080517fdf3d330500000000000000000000000000000000000000000000000000000000815273ffffffffffffffffffffffffffffffffffffffff85811660048301526706f05b59d3b2000060248301526702c68af0bb14000060448301526201518060648301529151918716935063df3d3305925060848082019260009290919082900301818387803b158015610ad057600080fd5b505af1158015610ae4573d6000803e3d6000fd5b505050508873ffffffffffffffffffffffffffffffffffffffff1663be03847883858673ffffffffffffffffffffffffffffffffffffffff1663be2c64d46040518163ffffffff167c0100000000000000000000000000000000000000000000000000000000028152600401602060405180830381600087803b158015610b6a57600080fd5b505af1158015610b7e573d6000803e3d6000fd5b505050506040513d6020811015610b9457600080fd5b5051604080517c010000000000000000000000000000000000000000000000000000000063ffffffff871602815273ffffffffffffffffffffffffffffffffffffffff94851660048201529284166024840152604483019190915291871660648201529051608480830192600092919082900301818387803b158015610c1957600080fd5b505af1158015610c2d573d6000803e3d6000fd5b505050508873ffffffffffffffffffffffffffffffffffffffff1663be03847884848573ffffffffffffffffffffffffffffffffffffffff1663e9a9c8506040518163ffffffff167c0100000000000000000000000000000000000000000000000000000000028152600401602060405180830381600087803b158015610cb357600080fd5b505af1158015610cc7573d6000803e3d6000fd5b505050506040513d6020811015610cdd57600080fd5b5051604080517c010000000000000000000000000000000000000000000000000000000063ffffffff871602815273ffffffffffffffffffffffffffffffffffffffff94851660048201529284166024840152604483019190915291871660648201529051608480830192600092919082900301818387803b158015610d6257600080fd5b505af1158015610d76573d6000803e3d6000fd5b505050508873ffffffffffffffffffffffffffffffffffffffff1663be03847883868773ffffffffffffffffffffffffffffffffffffffff1663131191616040518163ffffffff167c0100000000000000000000000000000000000000000000000000000000028152600401602060405180830381600087803b158015610dfc57600080fd5b505af1158015610e10573d6000803e3d6000fd5b505050506040513d6020811015610e2657600080fd5b5051604080517c010000000000000000000000000000000000000000000000000000000063ffffffff871602815273ffffffffffffffffffffffffffffffffffffffff94851660048201529284166024840152604483019190915291871660648201529051608480830192600092919082900301818387803b158015610eab57600080fd5b505af1158015610ebf573d6000803e3d6000fd5b505050508873ffffffffffffffffffffffffffffffffffffffff16630a8ed3db898c8d73ffffffffffffffffffffffffffffffffffffffff16638ea8dc9d6040518163ffffffff167c0100000000000000000000000000000000000000000000000000000000028152600401602060405180830381600087803b158015610f4557600080fd5b505af1158015610f59573d6000803e3d6000fd5b505050506040513d6020811015610f6f57600080fd5b5051604080517c010000000000000000000000000000000000000000000000000000000063ffffffff871602815273ffffffffffffffffffffffffffffffffffffffff948516600482015292909316602483015260448201529051606480830192600092919082900301818387803b158015610fea57600080fd5b505af1158015610ffe573d6000803e3d6000fd5b505050508873ffffffffffffffffffffffffffffffffffffffff16639d0effdb308c8d73ffffffffffffffffffffffffffffffffffffffff16638ea8dc9d6040518163ffffffff167c0100000000000000000000000000000000000000000000000000000000028152600401602060405180830381600087803b15801561108457600080fd5b505af1158015611098573d6000803e3d6000fd5b505050506040513d60208110156110ae57600080fd5b5051604080517c010000000000000000000000000000000000000000000000000000000063ffffffff871602815273ffffffffffffffffffffffffffffffffffffffff948516600482015292909316602483015260448201529051606480830192600092919082900301818387803b15801561112957600080fd5b505af115801561113d573d6000803e3d6000fd5b505050508873ffffffffffffffffffffffffffffffffffffffff1663afd925df898c8d73ffffffffffffffffffffffffffffffffffffffff16638ea8dc9d6040518163ffffffff167c0100000000000000000000000000000000000000000000000000000000028152600401602060405180830381600087803b1580156111c357600080fd5b505af11580156111d7573d6000803e3d6000fd5b505050506040513d60208110156111ed57600080fd5b5051604080517c010000000000000000000000000000000000000000000000000000000063ffffffff871602815273ffffffffffffffffffffffffffffffffffffffff948516600482015292909316602483015260448201529051606480830192600092919082900301818387803b15801561126857600080fd5b505af115801561127c573d6000803e3d6000fd5b505050508873ffffffffffffffffffffffffffffffffffffffff16630a8ed3db898b8c73ffffffffffffffffffffffffffffffffffffffff16633d6ab68f6040518163ffffffff167c0100000000000000000000000000000000000000000000000000000000028152600401602060405180830381600087803b15801561130257600080fd5b505af1158015611316573d6000803e3d6000fd5b505050506040513d602081101561132c57600080fd5b5051604080517c010000000000000000000000000000000000000000000000000000000063ffffffff871602815273ffffffffffffffffffffffffffffffffffffffff948516600482015292909316602483015260448201529051606480830192600092919082900301818387803b1580156113a757600080fd5b505af11580156113bb573d6000803e3d6000fd5b505050508873ffffffffffffffffffffffffffffffffffffffff16639d0effdb308b8c73ffffffffffffffffffffffffffffffffffffffff16633d6ab68f6040518163ffffffff167c0100000000000000000000000000000000000000000000000000000000028152600401602060405180830381600087803b15801561144157600080fd5b505af1158015611455573d6000803e3d6000fd5b505050506040513d602081101561146b57600080fd5b5051604080517c010000000000000000000000000000000000000000000000000000000063ffffffff871602815273ffffffffffffffffffffffffffffffffffffffff948516600482015292909316602483015260448201529051606480830192600092919082900301818387803b1580156114e657600080fd5b505af11580156114fa573d6000803e3d6000fd5b505050508873ffffffffffffffffffffffffffffffffffffffff1663afd925df898b8c73ffffffffffffffffffffffffffffffffffffffff16633d6ab68f6040518163ffffffff167c0100000000000000000000000000000000000000000000000000000000028152600401602060405180830381600087803b15801561158057600080fd5b505af1158015611594573d6000803e3d6000fd5b505050506040513d60208110156115aa57600080fd5b5051604080517c010000000000000000000000000000000000000000000000000000000063ffffffff871602815273ffffffffffffffffffffffffffffffffffffffff948516600482015292909316602483015260448201529051606480830192600092919082900301818387803b15801561162557600080fd5b505af1158015611639573d6000803e3d6000fd5b50506040805173ffffffffffffffffffffffffffffffffffffffff8e16815290517f8f42a14c9fe9e09f4fe8eeee69ae878731c838b6497425d4c30e1d09336cf34b9350908190036020019150a150505050505050505050565b60015473ffffffffffffffffffffffffffffffffffffffff1681565b60008054604080517f0178b8bf000000000000000000000000000000000000000000000000000000008152600481018590529051839273ffffffffffffffffffffffffffffffffffffffff1691630178b8bf91602480830192602092919082900301818787803b15801561172257600080fd5b505af1158015611736573d6000803e3d6000fd5b505050506040513d602081101561174c57600080fd5b5051604080517f3b3b57de00000000000000000000000000000000000000000000000000000000815260048101869052905173ffffffffffffffffffffffffffffffffffffffff90921691633b3b57de916024808201926020929091908290030181600087803b1580156117bf57600080fd5b505af11580156117d3573d6000803e3d6000fd5b505050506040513d60208110156117e957600080fd5b5051604080517fc36af460000000000000000000000000000000000000000000000000000000008152905191925073ffffffffffffffffffffffffffffffffffffffff83169163c36af4609160048082019260009290919082900301818387803b15801561185657600080fd5b505af115801561186a573d6000803e3d6000fd5b505050506040513d6000823e601f3d9081017fffffffffffffffffffffffffffffffffffffffffffffffffffffffffffffffe016820160405260a08110156118b157600080fd5b606082015160808301805191928401918491906401000000008111156118d657600080fd5b820160208101848111156118e957600080fd5b815164010000000081118282018710171561190357600080fd5b50949998505050505050505050565b60007f9065c3e7f7b7ef1ef4e53d2d0b8e0cef02874ab020c1ece79d5f0d3d0111c0ba600102826040518082805190602001908083835b6020831061198657805182527fffffffffffffffffffffffffffffffffffffffffffffffffffffffffffffffe09092019160209182019101611949565b51815160209384036101000a7fffffffffffffffffffffffffffffffffffffffffffffffffffffffffffffffff0180199092169116179052604080519290940182900382208282019790975281840196909652825180820384018152606090910192839052805190959294508493509185019190508083835b60208310611a3c57805182527fffffffffffffffffffffffffffffffffffffffffffffffffffffffffffffffe090920191602091820191016119ff565b5181516020939093036101000a7fffffffffffffffffffffffffffffffffffffffffffffffffffffffffffffffff01801990911692169190911790526040519201829003909120959450505050505600a165627a7a72305820ab11b9d30623b9d01308205acc128f2d0d34f86706754239559d4e0b5a98e0830029608060405234801561001057600080fd5b50612253806100206000396000f3006080604052600436106100405763ffffffff7c01000000000000000000000000000000000000000000000000000000006000350416635b7b72c18114610045575b600080fd5b34801561005157600080fd5b50604080516020600460443581810135601f810184900484028501840190955284845261010694823573ffffffffffffffffffffffffffffffffffffffff1694602480359536959460649492019190819084018382808284375050604080516020601f818a01358b0180359182018390048302840183018552818452989b60ff8b35169b909a90999401975091955091820193509150819084018382808284375094975050505091351515925061012f915050565b6040805173ffffffffffffffffffffffffffffffffffffffff9092168252519081900360200190f35b6000803088888888888861014161030b565b73ffffffffffffffffffffffffffffffffffffffff808916825287166020808301919091526040820187905260ff8516608083015282151560c083015260e0606083018181528751918401919091528651909160a084019161010085019189019080838360005b838110156101c05781810151838201526020016101a8565b50505050905090810190601f1680156101ed5780820380516001836020036101000a031916815260200191505b50838103825285518152855160209182019187019080838360005b83811015610220578181015183820152602001610208565b50505050905090810190601f16801561024d5780820380516001836020036101000a031916815260200191505b509950505050505050505050604051809103906000f080158015610275573d6000803e3d6000fd5b50604080517f3cebb823000000000000000000000000000000000000000000000000000000008152336004820152905191925073ffffffffffffffffffffffffffffffffffffffff831691633cebb8239160248082019260009290919082900301818387803b1580156102e757600080fd5b505af11580156102fb573d6000803e3d6000fd5b50929a9950505050505050505050565b604051611f0c8061031c83390190560060c0604052600760808190527f4d4d545f302e310000000000000000000000000000000000000000000000000060a090815262000040916004919062000147565b503480156200004e57600080fd5b5060405162001f0c38038062001f0c8339810160409081528151602080840151928401516060850151608086015160a087015160c088015160008054600160a060020a03191633179055600b8054600160a060020a0389166101000261010060a860020a031990911617905592880180519698949690959294919091019291620000de9160019187019062000147565b506002805460ff191660ff851617905581516200010390600390602085019062000147565b5060058054600160a060020a031916600160a060020a039790971696909617909555505050600655600b805460ff19169115159190911790555043600755620001ec565b828054600181600116156101000203166002900490600052602060002090601f016020900481019282601f106200018a57805160ff1916838001178555620001ba565b82800160010185558215620001ba579182015b82811115620001ba5782518255916020019190600101906200019d565b50620001c8929150620001cc565b5090565b620001e991905b80821115620001c85760008155600101620001d3565b90565b611d1080620001fc6000396000f3006080604052600436106101485763ffffffff7c010000000000000000000000000000000000000000000000000000000060003504166306fdde038114610225578063095ea7b3146102af57806317634514146102f457806318160ddd1461031b57806323b872dd14610330578063313ce567146103675780633cebb823146103925780634ee2cd7e146103c057806354fd4d50146103f15780636638c0871461040657806370a08231146104d657806380a5400114610504578063827f32c01461051957806395d89b411461054a578063981b24d01461055f578063a9059cbb14610577578063bef97c87146105a8578063c5bcc4f1146105bd578063cae9ca51146105d2578063d3ce77fe14610648578063dd62ed3e14610679578063df8de3e7146106ad578063e77772fe146106db578063f41e60c5146106f0578063f77c47911461070a575b60005461016a9073ffffffffffffffffffffffffffffffffffffffff1661071f565b151561017557600080fd5b600054604080517ff48c3054000000000000000000000000000000000000000000000000000000008152336004820152905173ffffffffffffffffffffffffffffffffffffffff9092169163f48c3054913491602480830192602092919082900301818588803b1580156101e857600080fd5b505af11580156101fc573d6000803e3d6000fd5b50505050506040513d602081101561021357600080fd5b5051151560011461022357600080fd5b005b34801561023157600080fd5b5061023a610759565b6040805160208082528351818301528351919283929083019185019080838360005b8381101561027457818101518382015260200161025c565b50505050905090810190601f1680156102a15780820380516001836020036101000a031916815260200191505b509250505060405180910390f35b3480156102bb57600080fd5b506102e073ffffffffffffffffffffffffffffffffffffffff600435166024356107e6565b604080519115158252519081900360200190f35b34801561030057600080fd5b5061030961099b565b60408051918252519081900360200190f35b34801561032757600080fd5b506103096109a1565b34801561033c57600080fd5b506102e073ffffffffffffffffffffffffffffffffffffffff600435811690602435166044356109b2565b34801561037357600080fd5b5061037c610a70565b6040805160ff9092168252519081900360200190f35b34801561039e57600080fd5b5061022373ffffffffffffffffffffffffffffffffffffffff60043516610a79565b3480156103cc57600080fd5b5061030973ffffffffffffffffffffffffffffffffffffffff60043516602435610ae4565b3480156103fd57600080fd5b5061023a610cae565b34801561041257600080fd5b506040805160206004803580820135601f81018490048402850184019095528484526104ad94369492936024939284019190819084018382808284375050604080516020601f818a01358b0180359182018390048302840183018552818452989b60ff8b35169b909a909994019750919550918201935091508190840183828082843750949750508435955050505050602001351515610d09565b6040805173ffffffffffffffffffffffffffffffffffffffff9092168252519081900360200190f35b3480156104e257600080fd5b5061030973ffffffffffffffffffffffffffffffffffffffff60043516610f96565b34801561051057600080fd5b506104ad610faa565b34801561052557600080fd5b506102e073ffffffffffffffffffffffffffffffffffffffff60043516602435610fc6565b34801561055657600080fd5b5061023a6110b9565b34801561056b57600080fd5b50610309600435611114565b34801561058357600080fd5b506102e073ffffffffffffffffffffffffffffffffffffffff60043516602435611244565b3480156105b457600080fd5b506102e0611263565b3480156105c957600080fd5b5061030961126c565b3480156105de57600080fd5b50604080516020600460443581810135601f81018490048402850184019095528484526102e094823573ffffffffffffffffffffffffffffffffffffffff169460248035953695946064949201919081908401838280828437509497506112729650505050505050565b34801561065457600080fd5b506102e073ffffffffffffffffffffffffffffffffffffffff6004351660243561139a565b34801561068557600080fd5b5061030973ffffffffffffffffffffffffffffffffffffffff60043581169060243516611489565b3480156106b957600080fd5b5061022373ffffffffffffffffffffffffffffffffffffffff600435166114c1565b3480156106e757600080fd5b506104ad6116f6565b3480156106fc57600080fd5b506102236004351515611717565b34801561071657600080fd5b506104ad61176c565b60008073ffffffffffffffffffffffffffffffffffffffff831615156107485760009150610753565b823b90506000811191505b50919050565b60018054604080516020600284861615610100026000190190941693909304601f810184900484028201840190925281815292918301828280156107de5780601f106107b3576101008083540402835291602001916107de565b820191906000526020600020905b8154815290600101906020018083116107c157829003601f168201915b505050505081565b600b5460009060ff1615156107fa57600080fd5b811580610835575033600090815260096020908152604080832073ffffffffffffffffffffffffffffffffffffffff87168452909152902054155b151561084057600080fd5b6000546108629073ffffffffffffffffffffffffffffffffffffffff1661071f565b156109265760008054604080517fda682aeb00000000000000000000000000000000000000000000000000000000815233600482015273ffffffffffffffffffffffffffffffffffffffff8781166024830152604482018790529151919092169263da682aeb92606480820193602093909283900390910190829087803b1580156108ec57600080fd5b505af1158015610900573d6000803e3d6000fd5b505050506040513d602081101561091657600080fd5b5051151560011461092657600080fd5b33600081815260096020908152604080832073ffffffffffffffffffffffffffffffffffffffff881680855290835292819020869055805186815290519293927f8c5be1e5ebec7d5bd14f71427d1e84f3dd0314c0f7b2291e5b200ac8c7c3b925929181900390910190a35060015b92915050565b60075481565b60006109ac43611114565b90505b90565b6000805473ffffffffffffffffffffffffffffffffffffffff163314610a5b57600b5460ff1615156109e357600080fd5b73ffffffffffffffffffffffffffffffffffffffff84166000908152600960209081526040808320338452909152902054821115610a2357506000610a69565b73ffffffffffffffffffffffffffffffffffffffff841660009081526009602090815260408083203384529091529020805483900390555b610a66848484611788565b90505b9392505050565b60025460ff1681565b60005473ffffffffffffffffffffffffffffffffffffffff163314610a9d57600080fd5b600080547fffffffffffffffffffffffff00000000000000000000000000000000000000001673ffffffffffffffffffffffffffffffffffffffff92909216919091179055565b73ffffffffffffffffffffffffffffffffffffffff82166000908152600860205260408120541580610b63575073ffffffffffffffffffffffffffffffffffffffff8316600090815260086020526040812080548492908110610b4357fe5b6000918252602090912001546fffffffffffffffffffffffffffffffff16115b15610c785760055473ffffffffffffffffffffffffffffffffffffffff1615610c705760055460065473ffffffffffffffffffffffffffffffffffffffff90911690634ee2cd7e908590610bb89086906119e5565b6040518363ffffffff167c0100000000000000000000000000000000000000000000000000000000028152600401808373ffffffffffffffffffffffffffffffffffffffff1673ffffffffffffffffffffffffffffffffffffffff16815260200182815260200192505050602060405180830381600087803b158015610c3d57600080fd5b505af1158015610c51573d6000803e3d6000fd5b505050506040513d6020811015610c6757600080fd5b50519050610995565b506000610995565b73ffffffffffffffffffffffffffffffffffffffff83166000908152600860205260409020610ca790836119fb565b9050610995565b6004805460408051602060026001851615610100026000190190941693909304601f810184900484028201840190925281815292918301828280156107de5780601f106107b3576101008083540402835291602001916107de565b600080808415610d195784610d1e565b600143035b600b546040517f5b7b72c100000000000000000000000000000000000000000000000000000000815230600482018181526024830185905260ff8c16606484015288151560a484015260c0604484019081528d5160c48501528d5195975061010090940473ffffffffffffffffffffffffffffffffffffffff1694635b7b72c194929388938f938f938f938e9391608482019160e40190602089019080838360005b83811015610dd8578181015183820152602001610dc0565b50505050905090810190601f168015610e055780820380516001836020036101000a031916815260200191505b50838103825285518152855160209182019187019080838360005b83811015610e38578181015183820152602001610e20565b50505050905090810190601f168015610e655780820380516001836020036101000a031916815260200191505b5098505050505050505050602060405180830381600087803b158015610e8a57600080fd5b505af1158015610e9e573d6000803e3d6000fd5b505050506040513d6020811015610eb457600080fd5b5051604080517f3cebb823000000000000000000000000000000000000000000000000000000008152336004820152905191925073ffffffffffffffffffffffffffffffffffffffff831691633cebb8239160248082019260009290919082900301818387803b158015610f2757600080fd5b505af1158015610f3b573d6000803e3d6000fd5b505060408051858152905173ffffffffffffffffffffffffffffffffffffffff851693507f086c875b377f900b07ce03575813022f05dd10ed7640b5282cf6d3c3fc352ade92509081900360200190a2979650505050505050565b6000610fa28243610ae4565b90505b919050565b60055473ffffffffffffffffffffffffffffffffffffffff1681565b600080548190819073ffffffffffffffffffffffffffffffffffffffff163314610fef57600080fd5b610ff76109a1565b915083820182111561100857600080fd5b61101185610f96565b905083810181111561102257600080fd5b61102f600a858401611b87565b73ffffffffffffffffffffffffffffffffffffffff8516600090815260086020526040902061106090828601611b87565b60408051858152905173ffffffffffffffffffffffffffffffffffffffff8716916000917fddf252ad1be2c89b69c2b068fc378daa952ba7f163c4a11628f55a4df523b3ef9181900360200190a3506001949350505050565b6003805460408051602060026001851615610100026000190190941693909304601f810184900484028201840190925281815292918301828280156107de5780601f106107b3576101008083540402835291602001916107de565b600a546000901580611152575081600a600081548110151561113257fe5b6000918252602090912001546fffffffffffffffffffffffffffffffff16115b156112325760055473ffffffffffffffffffffffffffffffffffffffff161561122a5760055460065473ffffffffffffffffffffffffffffffffffffffff9091169063981b24d0906111a59085906119e5565b6040518263ffffffff167c010000000000000000000000000000000000000000000000000000000002815260040180828152602001915050602060405180830381600087803b1580156111f757600080fd5b505af115801561120b573d6000803e3d6000fd5b505050506040513d602081101561122157600080fd5b50519050610fa5565b506000610fa5565b61123d600a836119fb565b9050610fa5565b600b5460009060ff16151561125857600080fd5b610a69338484611788565b600b5460ff1681565b60065481565b600061127e84846107e6565b151561128957600080fd5b6040517f8f4ffcb1000000000000000000000000000000000000000000000000000000008152336004820181815260248301869052306044840181905260806064850190815286516084860152865173ffffffffffffffffffffffffffffffffffffffff8a1695638f4ffcb195948a94938a939192909160a490910190602085019080838360005b83811015611329578181015183820152602001611311565b50505050905090810190601f1680156113565780820380516001836020036101000a031916815260200191505b5095505050505050600060405180830381600087803b15801561137857600080fd5b505af115801561138c573d6000803e3d6000fd5b506001979650505050505050565b600080548190819073ffffffffffffffffffffffffffffffffffffffff1633146113c357600080fd5b6113cb6109a1565b9150838210156113da57600080fd5b6113e385610f96565b9050838110156113f257600080fd5b6113ff600a858403611b87565b73ffffffffffffffffffffffffffffffffffffffff8516600090815260086020526040902061143090858303611b87565b60408051858152905160009173ffffffffffffffffffffffffffffffffffffffff8816917fddf252ad1be2c89b69c2b068fc378daa952ba7f163c4a11628f55a4df523b3ef9181900360200190a3506001949350505050565b73ffffffffffffffffffffffffffffffffffffffff918216600090815260096020908152604080832093909416825291909152205490565b60008054819073ffffffffffffffffffffffffffffffffffffffff1633146114e857600080fd5b73ffffffffffffffffffffffffffffffffffffffff83161515611553576000805460405173ffffffffffffffffffffffffffffffffffffffff90911691303180156108fc02929091818181858888f1935050505015801561154d573d6000803e3d6000fd5b506116f1565b604080517f70a08231000000000000000000000000000000000000000000000000000000008152306004820152905184935073ffffffffffffffffffffffffffffffffffffffff8416916370a082319160248083019260209291908290030181600087803b1580156115c457600080fd5b505af11580156115d8573d6000803e3d6000fd5b505050506040513d60208110156115ee57600080fd5b505160008054604080517fa9059cbb00000000000000000000000000000000000000000000000000000000815273ffffffffffffffffffffffffffffffffffffffff92831660048201526024810185905290519394509085169263a9059cbb92604480840193602093929083900390910190829087803b15801561167157600080fd5b505af1158015611685573d6000803e3d6000fd5b505050506040513d602081101561169b57600080fd5b505060005460408051838152905173ffffffffffffffffffffffffffffffffffffffff928316928616917ff931edb47c50b4b4104c187b5814a9aef5f709e17e2ecf9617e860cacade929c919081900360200190a35b505050565b600b54610100900473ffffffffffffffffffffffffffffffffffffffff1681565b60005473ffffffffffffffffffffffffffffffffffffffff16331461173b57600080fd5b600b80547fffffffffffffffffffffffffffffffffffffffffffffffffffffffffffffff0016911515919091179055565b60005473ffffffffffffffffffffffffffffffffffffffff1681565b6000808083151561179c57600192506119dc565b60065443116117aa57600080fd5b73ffffffffffffffffffffffffffffffffffffffff8516158015906117e5575073ffffffffffffffffffffffffffffffffffffffff85163014155b15156117f057600080fd5b6117fa8643610ae4565b91508382101561180d57600092506119dc565b60005461182f9073ffffffffffffffffffffffffffffffffffffffff1661071f565b156118f55760008054604080517f4a39314900000000000000000000000000000000000000000000000000000000815273ffffffffffffffffffffffffffffffffffffffff8a8116600483015289811660248301526044820189905291519190921692634a39314992606480820193602093909283900390910190829087803b1580156118bb57600080fd5b505af11580156118cf573d6000803e3d6000fd5b505050506040513d60208110156118e557600080fd5b505115156001146118f557600080fd5b73ffffffffffffffffffffffffffffffffffffffff8616600090815260086020526040902061192690858403611b87565b6119308543610ae4565b905083810181111561194157600080fd5b73ffffffffffffffffffffffffffffffffffffffff8516600090815260086020526040902061197290828601611b87565b8473ffffffffffffffffffffffffffffffffffffffff168673ffffffffffffffffffffffffffffffffffffffff167fddf252ad1be2c89b69c2b068fc378daa952ba7f163c4a11628f55a4df523b3ef866040518082815260200191505060405180910390a3600192505b50509392505050565b60008183106119f45781610a69565b5090919050565b600080600080858054905060001415611a175760009350611b7e565b855486906000198101908110611a2957fe5b6000918252602090912001546fffffffffffffffffffffffffffffffff168510611a9857855486906000198101908110611a5f57fe5b60009182526020909120015470010000000000000000000000000000000090046fffffffffffffffffffffffffffffffff169350611b7e565b856000815481101515611aa757fe5b6000918252602090912001546fffffffffffffffffffffffffffffffff16851015611ad55760009350611b7e565b8554600093506000190191505b82821115611b3b576002600183850101049050848682815481101515611b0457fe5b6000918252602090912001546fffffffffffffffffffffffffffffffff1611611b2f57809250611b36565b6001810391505b611ae2565b8583815481101515611b4957fe5b60009182526020909120015470010000000000000000000000000000000090046fffffffffffffffffffffffffffffffff1693505b50505092915050565b815460009081901580611bc957508354439085906000198101908110611ba957fe5b6000918252602090912001546fffffffffffffffffffffffffffffffff16105b15611c535783548490611bdf8260018301611ca7565b81548110611be957fe5b600091825260209091200180546fffffffffffffffffffffffffffffffff858116700100000000000000000000000000000000024382167fffffffffffffffffffffffffffffffff0000000000000000000000000000000090931692909217161781559150611ca1565b835484906000198101908110611c6557fe5b600091825260209091200180546fffffffffffffffffffffffffffffffff80861670010000000000000000000000000000000002911617815590505b50505050565b8154818355818111156116f1576000838152602090206116f19181019083016109af91905b80821115611ce05760008155600101611ccc565b50905600a165627a7a7230582036843f5e2b20f49276f9e1541c116615ec57700562f0ac6d537302cc37a51fc80029a165627a7a72305820d76649c01457112e0f4bc8b494a315e85c060bae4d8529956ba4113405406c840029",
  "source": "pragma solidity 0.4.24;\n\nimport \"@aragon/os/contracts/factory/DAOFactory.sol\";\nimport \"@aragon/os/contracts/apm/Repo.sol\";\nimport \"@aragon/os/contracts/lib/ens/ENS.sol\";\nimport \"@aragon/os/contracts/lib/ens/PublicResolver.sol\";\nimport \"@aragon/os/contracts/apm/APMNamehash.sol\";\n\nimport \"@aragon/apps-voting/contracts/Voting.sol\";\nimport \"@aragon/apps-token-manager/contracts/TokenManager.sol\";\nimport \"@aragon/apps-shared-minime/contracts/MiniMeToken.sol\";\n\nimport \"./Parliament.sol\";\n\n\ncontract TemplateBase is APMNamehash {\n    ENS public ens;\n    DAOFactory public fac;\n\n    event DeployInstance(address dao);\n    event InstalledApp(address appProxy, bytes32 appId);\n\n    constructor(DAOFactory _fac, ENS _ens) public {\n        ens = _ens;\n\n        // If no factory is passed, get it from on-chain bare-kit\n        if (address(_fac) == address(0)) {\n            bytes32 bareKit = apmNamehash(\"bare-kit\");\n            fac = TemplateBase(latestVersionAppBase(bareKit)).fac();\n        } else {\n            fac = _fac;\n        }\n    }\n\n    function latestVersionAppBase(bytes32 appId) public view returns (address base) {\n        Repo repo = Repo(PublicResolver(ens.resolver(appId)).addr(appId));\n        (,base,) = repo.getLatest();\n\n        return base;\n    }\n}\n\n\ncontract Template is TemplateBase {\n    MiniMeTokenFactory tokenFactory;\n\n    uint64 constant PCT = 10 ** 16;\n    address constant ANY_ENTITY = address(-1);\n\n    constructor(ENS ens) TemplateBase(DAOFactory(0), ens) public {\n        tokenFactory = new MiniMeTokenFactory();\n    }\n\n    function newInstance() public {\n        Kernel dao = fac.newDAO(this);\n        ACL acl = ACL(dao.acl());\n        acl.createPermission(this, dao, dao.APP_MANAGER_ROLE(), this);\n\n        address root = msg.sender;\n\n        // PLACE WHERE YOU SHOULD CHANGE YOUR APP NAME\n        // ---\n        bytes32 appId = apmNamehash(\"parliament\");\n        // ---\n\n        bytes32 votingAppId = apmNamehash(\"voting\");\n        bytes32 tokenManagerAppId = apmNamehash(\"token-manager\");\n\n        Parliament app = Parliament(dao.newAppInstance(appId, latestVersionAppBase(appId)));\n        Voting voting = Voting(dao.newAppInstance(votingAppId, latestVersionAppBase(votingAppId)));\n        TokenManager tokenManager = TokenManager(dao.newAppInstance(tokenManagerAppId, latestVersionAppBase(tokenManagerAppId)));\n\n        MiniMeToken token = tokenFactory.createCloneToken(MiniMeToken(0), 0, \"App token\", 0, \"APP\", true);\n        token.generateTokens(msg.sender, 1);\n        token.changeController(tokenManager);\n\n        app.initialize(address(voting));\n        tokenManager.initialize(token, true, 0);\n        // Initialize apps\n        voting.initialize(token, 50 * PCT, 20 * PCT, 1 days);\n\n        acl.createPermission(tokenManager, voting, voting.CREATE_VOTES_ROLE(), voting);\n        acl.createPermission(voting, tokenManager, tokenManager.MINT_ROLE(), voting);\n        acl.createPermission(tokenManager, app, app.USER_ROLE(), voting);\n\n        // Clean up permissions\n        acl.grantPermission(root, dao, dao.APP_MANAGER_ROLE());\n        acl.revokePermission(this, dao, dao.APP_MANAGER_ROLE());\n        acl.setPermissionManager(root, dao, dao.APP_MANAGER_ROLE());\n\n        acl.grantPermission(root, acl, acl.CREATE_PERMISSIONS_ROLE());\n        acl.revokePermission(this, acl, acl.CREATE_PERMISSIONS_ROLE());\n        acl.setPermissionManager(root, acl, acl.CREATE_PERMISSIONS_ROLE());\n\n        emit DeployInstance(dao);\n    }\n}\n",
  "sourcePath": "/home/peter/Documents/Work/Aragon/aragon-parliament/contracts/Template.sol",
  "compiler": {
    "name": "solc",
    "version": "0.4.24+commit.e67f0147.Emscripten.clang"
  },
  "schemaVersion": "2.0.1",
  "updatedAt": "2019-08-16T16:44:36.184Z"
}