{
  "contractName": "TemplateBase",
  "abi": [
    {
      "constant": true,
      "inputs": [],
      "name": "ens",
      "outputs": [
        {
          "name": "",
          "type": "address"
        }
      ],
      "payable": false,
      "stateMutability": "view",
      "type": "function"
    },
    {
      "constant": true,
      "inputs": [],
      "name": "fac",
      "outputs": [
        {
          "name": "",
          "type": "address"
        }
      ],
      "payable": false,
      "stateMutability": "view",
      "type": "function"
    },
    {
      "inputs": [
        {
          "name": "_fac",
          "type": "address"
        },
        {
          "name": "_ens",
          "type": "address"
        }
      ],
      "payable": false,
      "stateMutability": "nonpayable",
      "type": "constructor"
    },
    {
      "anonymous": false,
      "inputs": [
        {
          "indexed": false,
          "name": "dao",
          "type": "address"
        }
      ],
      "name": "DeployInstance",
      "type": "event"
    },
    {
      "anonymous": false,
      "inputs": [
        {
          "indexed": false,
          "name": "appProxy",
          "type": "address"
        },
        {
          "indexed": false,
          "name": "appId",
          "type": "bytes32"
        }
      ],
      "name": "InstalledApp",
      "type": "event"
    },
    {
      "constant": true,
      "inputs": [
        {
          "name": "appId",
          "type": "bytes32"
        }
      ],
      "name": "latestVersionAppBase",
      "outputs": [
        {
          "name": "base",
          "type": "address"
        }
      ],
      "payable": false,
      "stateMutability": "view",
      "type": "function"
    }
  ],
  "bytecode": "0x608060405234801561001057600080fd5b5060405160408061083083398101604052805160209091015160008054600160a060020a031916600160a060020a03808416919091178255831615156101505760408051808201909152600881527f626172652d6b6974000000000000000000000000000000000000000000000000602082015261009690640100000000610174810204565b90506100aa81640100000000610276810204565b600160a060020a031663c3b314726040518163ffffffff167c0100000000000000000000000000000000000000000000000000000000028152600401602060405180830381600087803b15801561010057600080fd5b505af1158015610114573d6000803e3d6000fd5b505050506040513d602081101561012a57600080fd5b505160018054600160a060020a031916600160a060020a0390921691909117905561016c565b60018054600160a060020a031916600160a060020a0385161790555b505050610494565b60007f9065c3e7f7b7ef1ef4e53d2d0b8e0cef02874ab020c1ece79d5f0d3d0111c0ba600102826040518082805190602001908083835b602083106101ca5780518252601f1990920191602091820191016101ab565b51815160209384036101000a6000190180199092169116179052604080519290940182900382208282019790975281840196909652825180820384018152606090910192839052805190959294508493509185019190508083835b602083106102445780518252601f199092019160209182019101610225565b5181516020939093036101000a6000190180199091169216919091179052604051920182900390912095945050505050565b60008054604080517f0178b8bf0000000000000000000000000000000000000000000000000000000081526004810185905290518392600160a060020a031691630178b8bf91602480830192602092919082900301818787803b1580156102dc57600080fd5b505af11580156102f0573d6000803e3d6000fd5b505050506040513d602081101561030657600080fd5b5051604080517f3b3b57de000000000000000000000000000000000000000000000000000000008152600481018690529051600160a060020a0390921691633b3b57de916024808201926020929091908290030181600087803b15801561036c57600080fd5b505af1158015610380573d6000803e3d6000fd5b505050506040513d602081101561039657600080fd5b5051604080517fc36af4600000000000000000000000000000000000000000000000000000000081529051919250600160a060020a0383169163c36af4609160048082019260009290919082900301818387803b1580156103f657600080fd5b505af115801561040a573d6000803e3d6000fd5b505050506040513d6000823e601f3d908101601f1916820160405260a081101561043357600080fd5b6060820151608083018051919284019184919064010000000081111561045857600080fd5b8201602081018481111561046b57600080fd5b815164010000000081118282018710171561048557600080fd5b50949998505050505050505050565b61038d806104a36000396000f3006080604052600436106100565763ffffffff7c01000000000000000000000000000000000000000000000000000000006000350416633f15457f811461005b578063c3b3147214610099578063c6d2c717146100ae575b600080fd5b34801561006757600080fd5b506100706100c6565b6040805173ffffffffffffffffffffffffffffffffffffffff9092168252519081900360200190f35b3480156100a557600080fd5b506100706100e2565b3480156100ba57600080fd5b506100706004356100fe565b60005473ffffffffffffffffffffffffffffffffffffffff1681565b60015473ffffffffffffffffffffffffffffffffffffffff1681565b60008054604080517f0178b8bf000000000000000000000000000000000000000000000000000000008152600481018590529051839273ffffffffffffffffffffffffffffffffffffffff1691630178b8bf91602480830192602092919082900301818787803b15801561017157600080fd5b505af1158015610185573d6000803e3d6000fd5b505050506040513d602081101561019b57600080fd5b5051604080517f3b3b57de00000000000000000000000000000000000000000000000000000000815260048101869052905173ffffffffffffffffffffffffffffffffffffffff90921691633b3b57de916024808201926020929091908290030181600087803b15801561020e57600080fd5b505af1158015610222573d6000803e3d6000fd5b505050506040513d602081101561023857600080fd5b5051604080517fc36af460000000000000000000000000000000000000000000000000000000008152905191925073ffffffffffffffffffffffffffffffffffffffff83169163c36af4609160048082019260009290919082900301818387803b1580156102a557600080fd5b505af11580156102b9573d6000803e3d6000fd5b505050506040513d6000823e601f3d9081017fffffffffffffffffffffffffffffffffffffffffffffffffffffffffffffffe016820160405260a081101561030057600080fd5b6060820151608083018051919284019184919064010000000081111561032557600080fd5b8201602081018481111561033857600080fd5b815164010000000081118282018710171561035257600080fd5b509499985050505050505050505600a165627a7a72305820e0325c67df63ec2ce6a25de38b2027858d468ab49dfc9e654c18037941bb25810029",
  "source": "pragma solidity 0.4.24;\n\nimport \"@aragon/os/contracts/factory/DAOFactory.sol\";\nimport \"@aragon/os/contracts/apm/Repo.sol\";\nimport \"@aragon/os/contracts/lib/ens/ENS.sol\";\nimport \"@aragon/os/contracts/lib/ens/PublicResolver.sol\";\nimport \"@aragon/os/contracts/apm/APMNamehash.sol\";\n\nimport \"@aragon/apps-voting/contracts/Voting.sol\";\nimport \"@aragon/apps-token-manager/contracts/TokenManager.sol\";\nimport \"@aragon/apps-shared-minime/contracts/MiniMeToken.sol\";\n\nimport \"./Parliament.sol\";\n\n\ncontract TemplateBase is APMNamehash {\n    ENS public ens;\n    DAOFactory public fac;\n\n    event DeployInstance(address dao);\n    event InstalledApp(address appProxy, bytes32 appId);\n\n    constructor(DAOFactory _fac, ENS _ens) public {\n        ens = _ens;\n\n        // If no factory is passed, get it from on-chain bare-kit\n        if (address(_fac) == address(0)) {\n            bytes32 bareKit = apmNamehash(\"bare-kit\");\n            fac = TemplateBase(latestVersionAppBase(bareKit)).fac();\n        } else {\n            fac = _fac;\n        }\n    }\n\n    function latestVersionAppBase(bytes32 appId) public view returns (address base) {\n        Repo repo = Repo(PublicResolver(ens.resolver(appId)).addr(appId));\n        (,base,) = repo.getLatest();\n\n        return base;\n    }\n}\n\n\ncontract Template is TemplateBase {\n    MiniMeTokenFactory tokenFactory;\n\n    uint64 constant PCT = 10 ** 16;\n    address constant ANY_ENTITY = address(-1);\n\n    constructor(ENS ens) TemplateBase(DAOFactory(0), ens) public {\n        tokenFactory = new MiniMeTokenFactory();\n    }\n\n    function newInstance() public {\n        Kernel dao = fac.newDAO(this);\n        ACL acl = ACL(dao.acl());\n        acl.createPermission(this, dao, dao.APP_MANAGER_ROLE(), this);\n\n        address root = msg.sender;\n\n        // PLACE WHERE YOU SHOULD CHANGE YOUR APP NAME\n        // ---\n        bytes32 appId = apmNamehash(\"parliament\");\n        // ---\n\n        bytes32 votingAppId = apmNamehash(\"voting\");\n        bytes32 tokenManagerAppId = apmNamehash(\"token-manager\");\n\n        Parliament app = Parliament(dao.newAppInstance(appId, latestVersionAppBase(appId)));\n        Voting voting = Voting(dao.newAppInstance(votingAppId, latestVersionAppBase(votingAppId)));\n        TokenManager tokenManager = TokenManager(dao.newAppInstance(tokenManagerAppId, latestVersionAppBase(tokenManagerAppId)));\n\n        MiniMeToken token = tokenFactory.createCloneToken(MiniMeToken(0), 0, \"App token\", 0, \"APP\", true);\n        token.generateTokens(msg.sender, 1);\n        token.changeController(tokenManager);\n\n        app.initialize(address(voting));\n        tokenManager.initialize(token, true, 0);\n        // Initialize apps\n        voting.initialize(token, 50 * PCT, 20 * PCT, 1 days);\n\n        acl.createPermission(tokenManager, voting, voting.CREATE_VOTES_ROLE(), voting);\n        acl.createPermission(voting, tokenManager, tokenManager.MINT_ROLE(), voting);\n        acl.createPermission(tokenManager, app, app.USER_ROLE(), voting);\n\n        // Clean up permissions\n        acl.grantPermission(root, dao, dao.APP_MANAGER_ROLE());\n        acl.revokePermission(this, dao, dao.APP_MANAGER_ROLE());\n        acl.setPermissionManager(root, dao, dao.APP_MANAGER_ROLE());\n\n        acl.grantPermission(root, acl, acl.CREATE_PERMISSIONS_ROLE());\n        acl.revokePermission(this, acl, acl.CREATE_PERMISSIONS_ROLE());\n        acl.setPermissionManager(root, acl, acl.CREATE_PERMISSIONS_ROLE());\n\n        emit DeployInstance(dao);\n    }\n}\n",
  "sourcePath": "/home/peter/Documents/Work/Aragon/aragon-parliament/contracts/Template.sol",
  "compiler": {
    "name": "solc",
    "version": "0.4.24+commit.e67f0147.Emscripten.clang"
  },
  "schemaVersion": "2.0.1",
  "updatedAt": "2019-08-16T16:44:36.186Z"
}