{
  "contractName": "Voting",
  "abi": [
    {
      "constant": true,
      "inputs": [],
      "name": "hasInitialized",
      "outputs": [
        {
          "name": "",
          "type": "bool"
        }
      ],
      "payable": false,
      "stateMutability": "view",
      "type": "function"
    },
    {
      "constant": true,
      "inputs": [
        {
          "name": "_script",
          "type": "bytes"
        }
      ],
      "name": "getEVMScriptExecutor",
      "outputs": [
        {
          "name": "",
          "type": "address"
        }
      ],
      "payable": false,
      "stateMutability": "view",
      "type": "function"
    },
    {
      "constant": true,
      "inputs": [],
      "name": "getRecoveryVault",
      "outputs": [
        {
          "name": "",
          "type": "address"
        }
      ],
      "payable": false,
      "stateMutability": "view",
      "type": "function"
    },
    {
      "constant": true,
      "inputs": [],
      "name": "MODIFY_QUORUM_ROLE",
      "outputs": [
        {
          "name": "",
          "type": "bytes32"
        }
      ],
      "payable": false,
      "stateMutability": "view",
      "type": "function"
    },
    {
      "constant": true,
      "inputs": [],
      "name": "MODIFY_SUPPORT_ROLE",
      "outputs": [
        {
          "name": "",
          "type": "bytes32"
        }
      ],
      "payable": false,
      "stateMutability": "view",
      "type": "function"
    },
    {
      "constant": true,
      "inputs": [
        {
          "name": "token",
          "type": "address"
        }
      ],
      "name": "allowRecoverability",
      "outputs": [
        {
          "name": "",
          "type": "bool"
        }
      ],
      "payable": false,
      "stateMutability": "view",
      "type": "function"
    },
    {
      "constant": true,
      "inputs": [],
      "name": "appId",
      "outputs": [
        {
          "name": "",
          "type": "bytes32"
        }
      ],
      "payable": false,
      "stateMutability": "view",
      "type": "function"
    },
    {
      "constant": true,
      "inputs": [],
      "name": "getInitializationBlock",
      "outputs": [
        {
          "name": "",
          "type": "uint256"
        }
      ],
      "payable": false,
      "stateMutability": "view",
      "type": "function"
    },
    {
      "constant": false,
      "inputs": [
        {
          "name": "_token",
          "type": "address"
        }
      ],
      "name": "transferToVault",
      "outputs": [],
      "payable": false,
      "stateMutability": "nonpayable",
      "type": "function"
    },
    {
      "constant": true,
      "inputs": [
        {
          "name": "_sender",
          "type": "address"
        },
        {
          "name": "_role",
          "type": "bytes32"
        },
        {
          "name": "_params",
          "type": "uint256[]"
        }
      ],
      "name": "canPerform",
      "outputs": [
        {
          "name": "",
          "type": "bool"
        }
      ],
      "payable": false,
      "stateMutability": "view",
      "type": "function"
    },
    {
      "constant": true,
      "inputs": [],
      "name": "getEVMScriptRegistry",
      "outputs": [
        {
          "name": "",
          "type": "address"
        }
      ],
      "payable": false,
      "stateMutability": "view",
      "type": "function"
    },
    {
      "constant": true,
      "inputs": [],
      "name": "voteTime",
      "outputs": [
        {
          "name": "",
          "type": "uint64"
        }
      ],
      "payable": false,
      "stateMutability": "view",
      "type": "function"
    },
    {
      "constant": true,
      "inputs": [],
      "name": "CREATE_VOTES_ROLE",
      "outputs": [
        {
          "name": "",
          "type": "bytes32"
        }
      ],
      "payable": false,
      "stateMutability": "view",
      "type": "function"
    },
    {
      "constant": true,
      "inputs": [],
      "name": "kernel",
      "outputs": [
        {
          "name": "",
          "type": "address"
        }
      ],
      "payable": false,
      "stateMutability": "view",
      "type": "function"
    },
    {
      "constant": true,
      "inputs": [],
      "name": "minAcceptQuorumPct",
      "outputs": [
        {
          "name": "",
          "type": "uint64"
        }
      ],
      "payable": false,
      "stateMutability": "view",
      "type": "function"
    },
    {
      "constant": true,
      "inputs": [],
      "name": "isPetrified",
      "outputs": [
        {
          "name": "",
          "type": "bool"
        }
      ],
      "payable": false,
      "stateMutability": "view",
      "type": "function"
    },
    {
      "constant": true,
      "inputs": [],
      "name": "votesLength",
      "outputs": [
        {
          "name": "",
          "type": "uint256"
        }
      ],
      "payable": false,
      "stateMutability": "view",
      "type": "function"
    },
    {
      "constant": true,
      "inputs": [],
      "name": "supportRequiredPct",
      "outputs": [
        {
          "name": "",
          "type": "uint64"
        }
      ],
      "payable": false,
      "stateMutability": "view",
      "type": "function"
    },
    {
      "constant": true,
      "inputs": [],
      "name": "token",
      "outputs": [
        {
          "name": "",
          "type": "address"
        }
      ],
      "payable": false,
      "stateMutability": "view",
      "type": "function"
    },
    {
      "constant": true,
      "inputs": [],
      "name": "PCT_BASE",
      "outputs": [
        {
          "name": "",
          "type": "uint64"
        }
      ],
      "payable": false,
      "stateMutability": "view",
      "type": "function"
    },
    {
      "anonymous": false,
      "inputs": [
        {
          "indexed": true,
          "name": "voteId",
          "type": "uint256"
        },
        {
          "indexed": true,
          "name": "creator",
          "type": "address"
        },
        {
          "indexed": false,
          "name": "metadata",
          "type": "string"
        }
      ],
      "name": "StartVote",
      "type": "event"
    },
    {
      "anonymous": false,
      "inputs": [
        {
          "indexed": true,
          "name": "voteId",
          "type": "uint256"
        },
        {
          "indexed": true,
          "name": "voter",
          "type": "address"
        },
        {
          "indexed": false,
          "name": "supports",
          "type": "bool"
        },
        {
          "indexed": false,
          "name": "stake",
          "type": "uint256"
        }
      ],
      "name": "CastVote",
      "type": "event"
    },
    {
      "anonymous": false,
      "inputs": [
        {
          "indexed": true,
          "name": "voteId",
          "type": "uint256"
        }
      ],
      "name": "ExecuteVote",
      "type": "event"
    },
    {
      "anonymous": false,
      "inputs": [
        {
          "indexed": false,
          "name": "supportRequiredPct",
          "type": "uint64"
        }
      ],
      "name": "ChangeSupportRequired",
      "type": "event"
    },
    {
      "anonymous": false,
      "inputs": [
        {
          "indexed": false,
          "name": "minAcceptQuorumPct",
          "type": "uint64"
        }
      ],
      "name": "ChangeMinQuorum",
      "type": "event"
    },
    {
      "anonymous": false,
      "inputs": [
        {
          "indexed": true,
          "name": "executor",
          "type": "address"
        },
        {
          "indexed": false,
          "name": "script",
          "type": "bytes"
        },
        {
          "indexed": false,
          "name": "input",
          "type": "bytes"
        },
        {
          "indexed": false,
          "name": "returnData",
          "type": "bytes"
        }
      ],
      "name": "ScriptResult",
      "type": "event"
    },
    {
      "anonymous": false,
      "inputs": [
        {
          "indexed": true,
          "name": "vault",
          "type": "address"
        },
        {
          "indexed": true,
          "name": "token",
          "type": "address"
        },
        {
          "indexed": false,
          "name": "amount",
          "type": "uint256"
        }
      ],
      "name": "RecoverToVault",
      "type": "event"
    },
    {
      "constant": false,
      "inputs": [
        {
          "name": "_token",
          "type": "address"
        },
        {
          "name": "_supportRequiredPct",
          "type": "uint64"
        },
        {
          "name": "_minAcceptQuorumPct",
          "type": "uint64"
        },
        {
          "name": "_voteTime",
          "type": "uint64"
        }
      ],
      "name": "initialize",
      "outputs": [],
      "payable": false,
      "stateMutability": "nonpayable",
      "type": "function"
    },
    {
      "constant": false,
      "inputs": [
        {
          "name": "_supportRequiredPct",
          "type": "uint64"
        }
      ],
      "name": "changeSupportRequiredPct",
      "outputs": [],
      "payable": false,
      "stateMutability": "nonpayable",
      "type": "function"
    },
    {
      "constant": false,
      "inputs": [
        {
          "name": "_minAcceptQuorumPct",
          "type": "uint64"
        }
      ],
      "name": "changeMinAcceptQuorumPct",
      "outputs": [],
      "payable": false,
      "stateMutability": "nonpayable",
      "type": "function"
    },
    {
      "constant": false,
      "inputs": [
        {
          "name": "_executionScript",
          "type": "bytes"
        },
        {
          "name": "_metadata",
          "type": "string"
        }
      ],
      "name": "newVote",
      "outputs": [
        {
          "name": "voteId",
          "type": "uint256"
        }
      ],
      "payable": false,
      "stateMutability": "nonpayable",
      "type": "function"
    },
    {
      "constant": false,
      "inputs": [
        {
          "name": "_executionScript",
          "type": "bytes"
        },
        {
          "name": "_metadata",
          "type": "string"
        },
        {
          "name": "_castVote",
          "type": "bool"
        },
        {
          "name": "_executesIfDecided",
          "type": "bool"
        }
      ],
      "name": "newVote",
      "outputs": [
        {
          "name": "voteId",
          "type": "uint256"
        }
      ],
      "payable": false,
      "stateMutability": "nonpayable",
      "type": "function"
    },
    {
      "constant": false,
      "inputs": [
        {
          "name": "_voteId",
          "type": "uint256"
        },
        {
          "name": "_supports",
          "type": "bool"
        },
        {
          "name": "_executesIfDecided",
          "type": "bool"
        }
      ],
      "name": "vote",
      "outputs": [],
      "payable": false,
      "stateMutability": "nonpayable",
      "type": "function"
    },
    {
      "constant": false,
      "inputs": [
        {
          "name": "_voteId",
          "type": "uint256"
        }
      ],
      "name": "executeVote",
      "outputs": [],
      "payable": false,
      "stateMutability": "nonpayable",
      "type": "function"
    },
    {
      "constant": true,
      "inputs": [],
      "name": "isForwarder",
      "outputs": [
        {
          "name": "",
          "type": "bool"
        }
      ],
      "payable": false,
      "stateMutability": "pure",
      "type": "function"
    },
    {
      "constant": false,
      "inputs": [
        {
          "name": "_evmScript",
          "type": "bytes"
        }
      ],
      "name": "forward",
      "outputs": [],
      "payable": false,
      "stateMutability": "nonpayable",
      "type": "function"
    },
    {
      "constant": true,
      "inputs": [
        {
          "name": "_sender",
          "type": "address"
        },
        {
          "name": "",
          "type": "bytes"
        }
      ],
      "name": "canForward",
      "outputs": [
        {
          "name": "",
          "type": "bool"
        }
      ],
      "payable": false,
      "stateMutability": "view",
      "type": "function"
    },
    {
      "constant": true,
      "inputs": [
        {
          "name": "_voteId",
          "type": "uint256"
        }
      ],
      "name": "canExecute",
      "outputs": [
        {
          "name": "",
          "type": "bool"
        }
      ],
      "payable": false,
      "stateMutability": "view",
      "type": "function"
    },
    {
      "constant": true,
      "inputs": [
        {
          "name": "_voteId",
          "type": "uint256"
        },
        {
          "name": "_voter",
          "type": "address"
        }
      ],
      "name": "canVote",
      "outputs": [
        {
          "name": "",
          "type": "bool"
        }
      ],
      "payable": false,
      "stateMutability": "view",
      "type": "function"
    },
    {
      "constant": true,
      "inputs": [
        {
          "name": "_voteId",
          "type": "uint256"
        }
      ],
      "name": "getVote",
      "outputs": [
        {
          "name": "open",
          "type": "bool"
        },
        {
          "name": "executed",
          "type": "bool"
        },
        {
          "name": "startDate",
          "type": "uint64"
        },
        {
          "name": "snapshotBlock",
          "type": "uint64"
        },
        {
          "name": "supportRequired",
          "type": "uint64"
        },
        {
          "name": "minAcceptQuorum",
          "type": "uint64"
        },
        {
          "name": "yea",
          "type": "uint256"
        },
        {
          "name": "nay",
          "type": "uint256"
        },
        {
          "name": "votingPower",
          "type": "uint256"
        },
        {
          "name": "script",
          "type": "bytes"
        }
      ],
      "payable": false,
      "stateMutability": "view",
      "type": "function"
    },
    {
      "constant": true,
      "inputs": [
        {
          "name": "_voteId",
          "type": "uint256"
        },
        {
          "name": "_voter",
          "type": "address"
        }
      ],
      "name": "getVoterState",
      "outputs": [
        {
          "name": "",
          "type": "uint8"
        }
      ],
      "payable": false,
      "stateMutability": "view",
      "type": "function"
    }
  ],
  "bytecode": "0x6080604052620000176401000000006200001d810204565b6200023b565b6200003064010000000062000125810204565b60408051808201909152601881527f494e49545f414c52454144595f494e495449414c495a45440000000000000000602082015290156200010c576040517f08c379a00000000000000000000000000000000000000000000000000000000081526004018080602001828103825283818151815260200191508051906020019080838360005b83811015620000d0578181015183820152602001620000b6565b50505050905090810190601f168015620000fe5780820380516001836020036101000a031916815260200191505b509250505060405180910390fd5b506200012360001964010000000062000154810204565b565b60006200014f60008051602062004030833981519152640100000000620025006200023382021704565b905090565b6200016764010000000062000125810204565b60408051808201909152601881527f494e49545f414c52454144595f494e495449414c495a454400000000000000006020820152901562000206576040517f08c379a000000000000000000000000000000000000000000000000000000000815260040180806020018281038252838181518152602001915080519060200190808383600083811015620000d0578181015183820152602001620000b6565b50620002306000805160206200403083398151915282640100000000620034db6200023782021704565b50565b5490565b9055565b613de5806200024b6000396000f3006080604052600436106101ab5763ffffffff7c01000000000000000000000000000000000000000000000000000000006000350416630803fac081146101b05780632914b9bd146101d957806332f0a3b51461025b5780633c624c75146102705780634b12311c146102975780635a55c1f0146102ec5780635eb243321461041357806362de7e5a146104375780637c1d0b871461044c5780637e7db6e11461046e57806380afdea81461049c5780638b3dd749146104b15780639d4941d8146104c6578063a1658fad146104f4578063a479e50814610568578063bcf93dd61461057d578063be2c64d4146105af578063c0774df3146105c4578063cc63604a14610638578063cdb2867b14610650578063d4aae0c414610681578063d5db2c8014610696578063d948d468146106c2578063dc474b1a1461071b578063de4796ed14610730578063de4f634714610745578063df133bca1461075a578063df3d33051461077c578063f4b00513146107c3578063f98a4eca146107f9578063fad167ab14610811578063fc0c546a14610826578063fc157cb41461083b578063fd64eccb14610850575b600080fd5b3480156101bc57600080fd5b506101c5610865565b604080519115158252519081900360200190f35b3480156101e557600080fd5b506040805160206004803580820135601f810184900484028501840190955284845261023294369492936024939284019190819084018382808284375094975061088f9650505050505050565b6040805173ffffffffffffffffffffffffffffffffffffffff9092168252519081900360200190f35b34801561026757600080fd5b5061023261099b565b34801561027c57600080fd5b50610285610a3a565b60408051918252519081900360200190f35b3480156102a357600080fd5b506102c860043573ffffffffffffffffffffffffffffffffffffffff60243516610a6f565b604051808260028111156102d857fe5b60ff16815260200191505060405180910390f35b3480156102f857600080fd5b50610304600435610b91565b604051808b1515151581526020018a1515151581526020018967ffffffffffffffff1667ffffffffffffffff1681526020018867ffffffffffffffff1667ffffffffffffffff1681526020018767ffffffffffffffff1667ffffffffffffffff1681526020018667ffffffffffffffff1667ffffffffffffffff16815260200185815260200184815260200183815260200180602001828103825283818151815260200191508051906020019080838360005b838110156103cf5781810151838201526020016103b7565b50505050905090810190601f1680156103fc5780820380516001836020036101000a031916815260200191505b509b50505050505050505050505060405180910390f35b34801561041f57600080fd5b5061043567ffffffffffffffff60043516610da7565b005b34801561044357600080fd5b50610285610fd3565b34801561045857600080fd5b5061043567ffffffffffffffff60043516611008565b34801561047a57600080fd5b506101c573ffffffffffffffffffffffffffffffffffffffff600435166112fd565b3480156104a857600080fd5b50610285611303565b3480156104bd57600080fd5b50610285611333565b3480156104d257600080fd5b5061043573ffffffffffffffffffffffffffffffffffffffff6004351661135e565b34801561050057600080fd5b5060408051602060046044358181013583810280860185019096528085526101c595833573ffffffffffffffffffffffffffffffffffffffff169560248035963696956064959394920192918291850190849080828437509497506116809650505050505050565b34801561057457600080fd5b50610232611810565b34801561058957600080fd5b506105926118d2565b6040805167ffffffffffffffff9092168252519081900360200190f35b3480156105bb57600080fd5b506102856118ee565b3480156105d057600080fd5b5060408051602060046024803582810135601f81018590048502860185019096528585526101c595833573ffffffffffffffffffffffffffffffffffffffff169536956044949193909101919081908401838280828437509497506119239650505050505050565b34801561064457600080fd5b506101c5600435611973565b34801561065c57600080fd5b506101c560043573ffffffffffffffffffffffffffffffffffffffff60243516611a2b565b34801561068d57600080fd5b50610232611ae3565b3480156106a257600080fd5b506102856024600480358281019290820135918135918201910135611b0e565b3480156106ce57600080fd5b506040805160206004803580820135601f8101849004840285018401909552848452610435943694929360249392840191908190840183828082843750949750611c719650505050505050565b34801561072757600080fd5b50610592611d3a565b34801561073c57600080fd5b506101c5611d4a565b34801561075157600080fd5b50610285611d7b565b34801561076657600080fd5b5061043560043560243515156044351515611d81565b34801561078857600080fd5b5061043573ffffffffffffffffffffffffffffffffffffffff6004351667ffffffffffffffff60243581169060443581169060643516611edd565b3480156107cf57600080fd5b506102856024600480358281019290820135918135918201910135604435151560643515156121d8565b34801561080557600080fd5b5061043560043561233a565b34801561081d57600080fd5b506105926123e5565b34801561083257600080fd5b5061023261240d565b34801561084757600080fd5b50610592612429565b34801561085c57600080fd5b506101c5612435565b600080610870611333565b9050801580159061088857508061088561243a565b10155b91505b5090565b6000610899611810565b73ffffffffffffffffffffffffffffffffffffffff166304bf2a7f836040518263ffffffff167c01000000000000000000000000000000000000000000000000000000000281526004018080602001828103825283818151815260200191508051906020019080838360005b8381101561091d578181015183820152602001610905565b50505050905090810190601f16801561094a5780820380516001836020036101000a031916815260200191505b5092505050602060405180830381600087803b15801561096957600080fd5b505af115801561097d573d6000803e3d6000fd5b505050506040513d602081101561099357600080fd5b505192915050565b60006109a5611ae3565b73ffffffffffffffffffffffffffffffffffffffff166332f0a3b56040518163ffffffff167c0100000000000000000000000000000000000000000000000000000000028152600401602060405180830381600087803b158015610a0857600080fd5b505af1158015610a1c573d6000803e3d6000fd5b505050506040513d6020811015610a3257600080fd5b505190505b90565b604080517f4d4f444946595f51554f52554d5f524f4c4500000000000000000000000000008152905190819003601201902081565b60035460408051808201909152600e81527f564f54494e475f4e4f5f564f544500000000000000000000000000000000000060208201526000918491908210610b50576040517f08c379a00000000000000000000000000000000000000000000000000000000081526004018080602001828103825283818151815260200191508051906020019080838360005b83811015610b15578181015183820152602001610afd565b50505050905090810190601f168015610b425780820380516001836020036101000a031916815260200191505b509250505060405180910390fd5b50600084815260026020908152604080832073ffffffffffffffffffffffffffffffffffffffff8716845260060190915290205460ff1691505b5092915050565b6000806000806000806000806000606060008b60035481106040805190810160405280600e81526020017f564f54494e475f4e4f5f564f5445000000000000000000000000000000000000815250901515610c48576040517f08c379a000000000000000000000000000000000000000000000000000000000815260040180806020018281038252838181518152602001915080519060200190808383600083811015610b15578181015183820152602001610afd565b5060008d81526002602052604090209150610c628261243e565b9b508160000160009054906101000a900460ff169a508160000160019054906101000a900467ffffffffffffffff1699508160000160099054906101000a900467ffffffffffffffff1698508160000160119054906101000a900467ffffffffffffffff1697508160010160009054906101000a900467ffffffffffffffff169650816002015495508160030154945081600401549350816005018054600181600116156101000203166002900480601f016020809104026020016040519081016040528092919081815260200182805460018160011615610100020316600290048015610d915780601f10610d6657610100808354040283529160200191610d91565b820191906000526020600020905b815481529060010190602001808311610d7457829003601f168201915b5050505050925050509193959799509193959799565b604080517f4d4f444946595f51554f52554d5f524f4c45000000000000000000000000000081529051908190036012019020600154610df39067ffffffffffffffff80851691166124a5565b610dfe338383611680565b60408051808201909152600f81527f4150505f415554485f4641494c454400000000000000000000000000000000006020820152901515610e9b576040517f08c379a000000000000000000000000000000000000000000000000000000000815260040180806020018281038252838181518152602001915080519060200190808383600083811015610b15578181015183820152602001610afd565b5060005460408051808201909152601981527f564f54494e475f4348414e47455f51554f52554d5f504354530000000000000060208201529067ffffffffffffffff7401000000000000000000000000000000000000000090910481169085161115610f63576040517f08c379a000000000000000000000000000000000000000000000000000000000815260040180806020018281038252838181518152602001915080519060200190808383600083811015610b15578181015183820152602001610afd565b506001805467ffffffffffffffff85167fffffffffffffffffffffffffffffffffffffffffffffffff0000000000000000909116811790915560408051918252517f3172f2e9273c729c2a47cc8bf7e7f18506e3e3035126d562602bd2155bc78a509181900360200190a1505050565b604080517f4d4f444946595f535550504f52545f524f4c45000000000000000000000000008152905190819003601301902081565b604080517f4d4f444946595f535550504f52545f524f4c45000000000000000000000000008152905190819003601301902060005461106c9067ffffffffffffffff80851691740100000000000000000000000000000000000000009004166124a5565b611077338383611680565b60408051808201909152600f81527f4150505f415554485f4641494c454400000000000000000000000000000000006020820152901515611114576040517f08c379a000000000000000000000000000000000000000000000000000000000815260040180806020018281038252838181518152602001915080519060200190808383600083811015610b15578181015183820152602001610afd565b5060015460408051808201909152601a81527f564f54494e475f4348414e47455f535550504f52545f5043545300000000000060208201529067ffffffffffffffff808616911611156111c3576040517f08c379a000000000000000000000000000000000000000000000000000000000815260040180806020018281038252838181518152602001915080519060200190808383600083811015610b15578181015183820152602001610afd565b5060408051808201909152601a81527f564f54494e475f4348414e47455f535550505f544f4f5f4249470000000000006020820152670de0b6b3a764000067ffffffffffffffff851610611273576040517f08c379a000000000000000000000000000000000000000000000000000000000815260040180806020018281038252838181518152602001915080519060200190808383600083811015610b15578181015183820152602001610afd565b506000805467ffffffffffffffff85167401000000000000000000000000000000000000000081027fffffffff0000000000000000ffffffffffffffffffffffffffffffffffffffff9092169190911790915560408051918252517f903b617f7f36eb047a29b89d1bf7885fdae31d250c3320fccf11d045c11b396e9181900360200190a1505050565b50600190565b600061132e7fd625496217aa6a3453eecb9c3489dc5a53e6c67b444329ea2b2cbc9ff547639b612500565b905090565b600061132e7febb05b386a8d34882b8711d156f463690983dc47815980fb82aeeff1aa43579e612500565b600080600061136c846112fd565b60408051808201909152601281527f5245434f5645525f444953414c4c4f57454400000000000000000000000000006020820152901515611409576040517f08c379a000000000000000000000000000000000000000000000000000000000815260040180806020018281038252838181518152602001915080519060200190808383600083811015610b15578181015183820152602001610afd565b5061141261099b565b925061141d83612508565b60408051808201909152601a81527f5245434f5645525f5641554c545f4e4f545f434f4e545241435400000000000060208201529015156114ba576040517f08c379a000000000000000000000000000000000000000000000000000000000815260040180806020018281038252838181518152602001915080519060200190808383600083811015610b15578181015183820152602001610afd565b5073ffffffffffffffffffffffffffffffffffffffff84161515611525576040513031925073ffffffffffffffffffffffffffffffffffffffff84169083156108fc029084906000818181858888f1935050505015801561151f573d6000803e3d6000fd5b50611615565b508261154d73ffffffffffffffffffffffffffffffffffffffff82163063ffffffff61253b16565b915061157673ffffffffffffffffffffffffffffffffffffffff8216848463ffffffff61267416565b60408051808201909152601d81527f5245434f5645525f544f4b454e5f5452414e534645525f4641494c45440000006020820152901515611613576040517f08c379a000000000000000000000000000000000000000000000000000000000815260040180806020018281038252838181518152602001915080519060200190808383600083811015610b15578181015183820152602001610afd565b505b8373ffffffffffffffffffffffffffffffffffffffff168373ffffffffffffffffffffffffffffffffffffffff167f596caf56044b55fb8c4ca640089bbc2b63cae3e978b851f5745cbb7c5b288e02846040518082815260200191505060405180910390a350505050565b60008061168b610865565b151561169a5760009150611808565b6116a2611ae3565b905073ffffffffffffffffffffffffffffffffffffffff811615156116ca5760009150611808565b8073ffffffffffffffffffffffffffffffffffffffff1663fdef91068630876116f28861270c565b6040517c010000000000000000000000000000000000000000000000000000000063ffffffff871602815273ffffffffffffffffffffffffffffffffffffffff808616600483019081529085166024830152604482018490526080606483019081528351608484015283519192909160a490910190602085019080838360005b8381101561178a578181015183820152602001611772565b50505050905090810190601f1680156117b75780820380516001836020036101000a031916815260200191505b5095505050505050602060405180830381600087803b1580156117d957600080fd5b505af11580156117ed573d6000803e3d6000fd5b505050506040513d602081101561180357600080fd5b505191505b509392505050565b60008061181b611ae3565b604080517fbe00bbd80000000000000000000000000000000000000000000000000000000081527fd6f028ca0e8edb4a8c9757ca4fdccab25fa1e0317da1188108f7d2dee14902fb60048201527fddbcfd564f642ab5627cf68b9b7d374fb4f8a36e941a75d89c87998cef03bd616024820152905173ffffffffffffffffffffffffffffffffffffffff929092169163be00bbd8916044808201926020929091908290030181600087803b15801561096957600080fd5b60015468010000000000000000900467ffffffffffffffff1681565b604080517f4352454154455f564f5445535f524f4c450000000000000000000000000000008152905190819003601101902081565b600061196c8360405180807f4352454154455f564f5445535f524f4c4500000000000000000000000000000081525060110190506040518091039020611967612716565b611680565b9392505050565b60035460408051808201909152600e81527f564f54494e475f4e4f5f564f544500000000000000000000000000000000000060208201526000918391908210611a18576040517f08c379a000000000000000000000000000000000000000000000000000000000815260040180806020018281038252838181518152602001915080519060200190808383600083811015610b15578181015183820152602001610afd565b50611a2283612728565b91505b50919050565b60035460408051808201909152600e81527f564f54494e475f4e4f5f564f544500000000000000000000000000000000000060208201526000918491908210611ad0576040517f08c379a000000000000000000000000000000000000000000000000000000000815260040180806020018281038252838181518152602001915080519060200190808383600083811015610b15578181015183820152602001610afd565b50611adb8484612841565b949350505050565b600061132e7f4172f0f7d2289153072b0a6ca36959e0cbe2efc3afe50fc81636caa96338137b612500565b604080517f4352454154455f564f5445535f524f4c450000000000000000000000000000008152815190819003601101812060008083526020830190935290611b5d9033908390855b50611680565b60408051808201909152600f81527f4150505f415554485f4641494c454400000000000000000000000000000000006020820152901515611bfa576040517f08c379a000000000000000000000000000000000000000000000000000000000815260040180806020018281038252838181518152602001915080519060200190808383600083811015610b15578181015183820152602001610afd565b50611c6786868080601f0160208091040260200160405190810160405280939291908181526020018383808284375050604080516020601f8c018190048102820181019092528a815294508a93508992508291508401838280828437820191505050505050600180612928565b9695505050505050565b611c7b3382611923565b60408051808201909152601681527f564f54494e475f43414e5f4e4f545f464f5257415244000000000000000000006020820152901515611d18576040517f08c379a000000000000000000000000000000000000000000000000000000000815260040180806020018281038252838181518152602001915080519060200190808383600083811015610b15578181015183820152602001610afd565b50611d36816020604051908101604052806000815250600180612928565b5050565b60015467ffffffffffffffff1681565b60007fffffffffffffffffffffffffffffffffffffffffffffffffffffffffffffffff611d75611333565b14905090565b60035481565b60035460408051808201909152600e81527f564f54494e475f4e4f5f564f5445000000000000000000000000000000000000602082015284918210611e22576040517f08c379a000000000000000000000000000000000000000000000000000000000815260040180806020018281038252838181518152602001915080519060200190808383600083811015610b15578181015183820152602001610afd565b50611e2d8433612841565b60408051808201909152601381527f564f54494e475f43414e5f4e4f545f564f5445000000000000000000000000006020820152901515611eca576040517f08c379a000000000000000000000000000000000000000000000000000000000815260040180806020018281038252838181518152602001915080519060200190808383600083811015610b15578181015183820152602001610afd565b50611ed784843385612ca1565b50505050565b611ee5611333565b60408051808201909152601881527f494e49545f414c52454144595f494e495449414c495a4544000000000000000060208201529015611f81576040517f08c379a000000000000000000000000000000000000000000000000000000000815260040180806020018281038252838181518152602001915080519060200190808383600083811015610b15578181015183820152602001610afd565b50611f8a612f2f565b60408051808201909152601081527f564f54494e475f494e49545f5043545300000000000000000000000000000000602082015267ffffffffffffffff8085169084161115612035576040517f08c379a000000000000000000000000000000000000000000000000000000000815260040180806020018281038252838181518152602001915080519060200190808383600083811015610b15578181015183820152602001610afd565b5060408051808201909152601b81527f564f54494e475f494e49545f535550504f52545f544f4f5f42494700000000006020820152670de0b6b3a764000067ffffffffffffffff8516106120e5576040517f08c379a000000000000000000000000000000000000000000000000000000000815260040180806020018281038252838181518152602001915080519060200190808383600083811015610b15578181015183820152602001610afd565b50600080547fffffffffffffffffffffffff00000000000000000000000000000000000000001673ffffffffffffffffffffffffffffffffffffffff95909516949094177fffffffff0000000000000000ffffffffffffffffffffffffffffffffffffffff167401000000000000000000000000000000000000000067ffffffffffffffff9485160217909355600180547fffffffffffffffffffffffffffffffffffffffffffffffff000000000000000016918316919091177fffffffffffffffffffffffffffffffff0000000000000000ffffffffffffffff16680100000000000000009390921692909202179055565b604080517f4352454154455f564f5445535f524f4c450000000000000000000000000000008152815190819003601101812060008083526020830190935290612225903390839085611b57565b60408051808201909152600f81527f4150505f415554485f4641494c4544000000000000000000000000000000000060208201529015156122c2576040517f08c379a000000000000000000000000000000000000000000000000000000000815260040180806020018281038252838181518152602001915080519060200190808383600083811015610b15578181015183820152602001610afd565b5061232e88888080601f0160208091040260200160405190810160405280939291908181526020018383808284375050604080516020601f8e018190048102820181019092528c815294508c93508b925082915084018382808284378201915050505050508686612928565b98975050505050505050565b60035460408051808201909152600e81527f564f54494e475f4e4f5f564f54450000000000000000000000000000000000006020820152829182106123db576040517f08c379a000000000000000000000000000000000000000000000000000000000815260040180806020018281038252838181518152602001915080519060200190808383600083811015610b15578181015183820152602001610afd565b50611d368261300e565b60005474010000000000000000000000000000000000000000900467ffffffffffffffff1681565b60005473ffffffffffffffffffffffffffffffffffffffff1681565b670de0b6b3a764000081565b600190565b4390565b600154815460009161247491610100900467ffffffffffffffff908116916801000000000000000090041663ffffffff6130c116565b67ffffffffffffffff16612486613173565b67ffffffffffffffff1610801561249f5750815460ff16155b92915050565b6040805160028082526060808301845292602083019080388339019050509050828160008151811015156124d557fe5b6020908102909101015280518290829060019081106124f057fe5b6020908102909101015292915050565b5490565b5490565b60008073ffffffffffffffffffffffffffffffffffffffff831615156125315760009150611a25565b50506000903b1190565b6040805173ffffffffffffffffffffffffffffffffffffffff83166024808301919091528251808303909101815260449091019091526020810180517bffffffffffffffffffffffffffffffffffffffffffffffffffffffff167f70a082310000000000000000000000000000000000000000000000000000000017905260009081806125c88684613185565b60408051808201909152601c81527f534146455f4552435f32305f42414c414e43455f5245564552544544000000006020820152919350915082151561266a576040517f08c379a000000000000000000000000000000000000000000000000000000000815260040180806020018281038252838181518152602001915080519060200190808383600083811015610b15578181015183820152602001610afd565b5095945050505050565b6040805173ffffffffffffffffffffffffffffffffffffffff8416602482015260448082018490528251808303909101815260649091019091526020810180517bffffffffffffffffffffffffffffffffffffffffffffffffffffffff167fa9059cbb0000000000000000000000000000000000000000000000000000000017905260009061270385826131b6565b95945050505050565b8051602002815290565b60408051600081526020810190915290565b60008181526002602052604081208054829060ff161561274b576000925061283a565b60028201546004830154835461278192919071010000000000000000000000000000000000900467ffffffffffffffff16613204565b1561278f576001925061283a565b6127988261243e565b156127a6576000925061283a565b600382015460028301546127bf9163ffffffff61324616565b600283015483549192506127f391839071010000000000000000000000000000000000900467ffffffffffffffff16613204565b1515612802576000925061283a565b60028201546004830154600184015461282692919067ffffffffffffffff16613204565b1515612835576000925061283a565b600192505b5050919050565b60008281526002602052604081206128588161243e565b8015611adb5750600080548254604080517f4ee2cd7e00000000000000000000000000000000000000000000000000000000815273ffffffffffffffffffffffffffffffffffffffff8881166004830152690100000000000000000090930467ffffffffffffffff16602482015290519190921691634ee2cd7e91604480830192602092919082900301818787803b1580156128f357600080fd5b505af1158015612907573d6000803e3d6000fd5b505050506040513d602081101561291d57600080fd5b505111949350505050565b60008060008060016129386132eb565b60008054604080517f981b24d00000000000000000000000000000000000000000000000000000000081529490930367ffffffffffffffff81166004860152925192965073ffffffffffffffffffffffffffffffffffffffff169263981b24d09260248083019360209383900390910190829087803b1580156129ba57600080fd5b505af11580156129ce573d6000803e3d6000fd5b505050506040513d60208110156129e457600080fd5b505160408051808201909152601681527f564f54494e475f4e4f5f564f54494e475f504f57455200000000000000000000602082015290925060008311612a87576040517f08c379a000000000000000000000000000000000000000000000000000000000815260040180806020018281038252838181518152602001915080519060200190808383600083811015610b15578181015183820152602001610afd565b505060038054600181019091556000818152600260205260409020909350612aad613173565b81547fffffffffffffffffffffffffffffffffffffffffffffff0000000000000000ff1661010067ffffffffffffffff92831602177fffffffffffffffffffffffffffffff0000000000000000ffffffffffffffffff16690100000000000000000085831602178083556000547fffffffffffffff0000000000000000ffffffffffffffffffffffffffffffffff9091167401000000000000000000000000000000000000000090910482167101000000000000000000000000000000000002178255600180549083018054919092167fffffffffffffffffffffffffffffffffffffffffffffffff0000000000000000909116179055600481018290558751612bc090600583019060208b0190613d2b565b503373ffffffffffffffffffffffffffffffffffffffff16847f4d72fe0577a3a3f7da968d7b892779dde102519c25527b29cf7054f245c791b9896040518080602001828103825283818151815260200191508051906020019080838360005b83811015612c38578181015183820152602001612c20565b50505050905090810190601f168015612c655780820380516001836020036101000a031916815260200191505b509250505060405180910390a3858015612c845750612c848433612841565b15612c9657612c968460013388612ca1565b505050949350505050565b60008481526002602090815260408083208354815483517f4ee2cd7e00000000000000000000000000000000000000000000000000000000815273ffffffffffffffffffffffffffffffffffffffff8981166004830152690100000000000000000090920467ffffffffffffffff166024820152935192959485949190921692634ee2cd7e9260448084019391929182900301818787803b158015612d4557600080fd5b505af1158015612d59573d6000803e3d6000fd5b505050506040513d6020811015612d6f57600080fd5b505173ffffffffffffffffffffffffffffffffffffffff8616600090815260068501602052604090205490925060ff1690506001816002811115612daf57fe5b1415612dd4576002830154612dca908363ffffffff6132f816565b6002840155612e03565b6002816002811115612de257fe5b1415612e03576003830154612dfd908363ffffffff6132f816565b60038401555b8515612e28576002830154612e1e908363ffffffff61324616565b6002840155612e43565b6003830154612e3d908363ffffffff61324616565b60038401555b85612e4f576002612e52565b60015b73ffffffffffffffffffffffffffffffffffffffff86166000908152600685016020526040902080547fffffffffffffffffffffffffffffffffffffffffffffffffffffffffffffff00166001836002811115612eab57fe5b021790555060408051871515815260208101849052815173ffffffffffffffffffffffffffffffffffffffff8816928a927fb34ee265e3d4f5ec4e8b52d59b2a9be8fceca2f274ebc080d8fba797fea9391f929081900390910190a3838015612f185750612f1887612728565b15612f2657612f26876133a3565b50505050505050565b612f37611333565b60408051808201909152601881527f494e49545f414c52454144595f494e495449414c495a4544000000000000000060208201529015612fd3576040517f08c379a000000000000000000000000000000000000000000000000000000000815260040180806020018281038252838181518152602001915080519060200190808383600083811015610b15578181015183820152602001610afd565b5061300c612fdf61243a565b7febb05b386a8d34882b8711d156f463690983dc47815980fb82aeeff1aa43579e9063ffffffff6134db16565b565b61301781612728565b60408051808201909152601681527f564f54494e475f43414e5f4e4f545f455845435554450000000000000000000060208201529015156130b4576040517f08c379a000000000000000000000000000000000000000000000000000000000815260040180806020018281038252838181518152602001915080519060200190808383600083811015610b15578181015183820152602001610afd565b506130be816133a3565b50565b60408051808201909152601381527f4d41544836345f4144445f4f564552464c4f570000000000000000000000000060208201526000908383019067ffffffffffffffff8086169083161015611808576040517f08c379a000000000000000000000000000000000000000000000000000000000815260040180806020018281038252838181518152602001915080519060200190808383600083811015610b15578181015183820152602001610afd565b600061132e6131806134df565b6134e3565b6000806000806040516020818751602089018a5afa925060008311156131aa57805191505b50909590945092505050565b6000806040516020818551602087016000895af160008111156131fa573d80156131e757602081146131f0576131f8565b600193506131f8565b600183511493505b505b5090949350505050565b6000808315156132175760009150611808565b8361323086670de0b6b3a764000063ffffffff61359316565b81151561323957fe5b0492909211949350505050565b60408051808201909152601181527f4d4154485f4144445f4f564552464c4f5700000000000000000000000000000060208201526000908383019084821015611808576040517f08c379a000000000000000000000000000000000000000000000000000000000815260040180806020018281038252838181518152602001915080519060200190808383600083811015610b15578181015183820152602001610afd565b600061132e61318061243a565b60408051808201909152601281527f4d4154485f5355425f554e444552464c4f570000000000000000000000000000602082015260009081908484111561339b576040517f08c379a000000000000000000000000000000000000000000000000000000000815260040180806020018281038252838181518152602001915080519060200190808383600083811015610b15578181015183820152602001610afd565b505050900390565b600081815260026020818152604080842080547fffffffffffffffffffffffffffffffffffffffffffffffffffffffffffffff001660019081178255825195865260058201805491821615610100027fffffffffffffffffffffffffffffffffffffffffffffffffffffffffffffffff0190911694909404601f810184900484028601830183529285018381529094936134aa93919290919085018282801561348d5780601f106134625761010080835404028352916020019161348d565b820191906000526020600020905b81548152906001019060200180831161347057829003601f168201915b505060408051600081526020810190915286935091506136559050565b5060405183907fbf8e2b108bb7c980e08903a8a46527699d5e84905a082d56dacb4150725c8cab90600090a2505050565b9055565b4290565b60408051808201909152601581527f55494e5436345f4e554d4245525f544f4f5f4249470000000000000000000000602082015260009067ffffffffffffffff83111561358c576040517f08c379a000000000000000000000000000000000000000000000000000000000815260040180806020018281038252838181518152602001915080519060200190808383600083811015610b15578181015183820152602001610afd565b5090919050565b6000808315156135a65760009150610b8a565b508282028284828115156135b657fe5b60408051808201909152601181527f4d4154485f4d554c5f4f564552464c4f5700000000000000000000000000000060208201529291900414611808576040517f08c379a000000000000000000000000000000000000000000000000000000000815260040180806020018281038252838181518152602001915080519060200190808383600083811015610b15578181015183820152602001610afd565b6060600080606080613665610865565b60408051808201909152601481527f494e49545f4e4f545f494e495449414c495a45440000000000000000000000006020820152901515613702576040517f08c379a000000000000000000000000000000000000000000000000000000000815260040180806020018281038252838181518152602001915080519060200190808383600083811015610b15578181015183820152602001610afd565b5060008061370e611ae3565b9150613718611303565b90506137238a61088f565b60408051808201909152601b81527f45564d52554e5f4558454355544f525f554e415641494c41424c450000000000602082015290965073ffffffffffffffffffffffffffffffffffffffff871615156137d9576040517f08c379a000000000000000000000000000000000000000000000000000000000815260040180806020018281038252838181518152602001915080519060200190808383600083811015610b15578181015183820152602001610afd565b506040516060602482019081528b5160848301528b517f279cea3500000000000000000000000000000000000000000000000000000000975087928d928d928d9282916044820191606481019160a490910190602089019080838360005b8381101561384f578181015183820152602001613837565b50505050905090810190601f16801561387c5780820380516001836020036101000a031916815260200191505b50848103835286518152865160209182019188019080838360005b838110156138af578181015183820152602001613897565b50505050905090810190601f1680156138dc5780820380516001836020036101000a031916815260200191505b508481038252855181528551602091820191808801910280838360005b838110156139115781810151838201526020016138f9565b505050509050019650505050505050604051602081830303815290604052907bffffffffffffffffffffffffffffffffffffffffffffffffffffffff19166020820180517bffffffffffffffffffffffffffffffffffffffffffffffffffffffff83818316178352505050509350600080855160208701895af46040519350808015613a1657603f3d1180156139b45760203d03806020883e8601604052613a10565b7f08c379a000000000000000000000000000000000000000000000000000000000865260206004870152601e60248701527f45564d52554e5f4558454355544f525f494e56414c49445f52455455524e00006044870152606486fd5b50613a1f565b3d6000863e3d85fd5b50508573ffffffffffffffffffffffffffffffffffffffff167f5229a5dba83a54ae8cb5b51bdd6de9474cacbe9dd332f5185f3a4f4f2e3f4ad98b8b8660405180806020018060200180602001848103845287818151815260200191508051906020019080838360005b83811015613aa1578181015183820152602001613a89565b50505050905090810190601f168015613ace5780820380516001836020036101000a031916815260200191505b50848103835286518152865160209182019188019080838360005b83811015613b01578181015183820152602001613ae9565b50505050905090810190601f168015613b2e5780820380516001836020036101000a031916815260200191505b50848103825285518152855160209182019187019080838360005b83811015613b61578181015183820152602001613b49565b50505050905090810190601f168015613b8e5780820380516001836020036101000a031916815260200191505b50965050505050505060405180910390a28296508173ffffffffffffffffffffffffffffffffffffffff16613bc1611ae3565b73ffffffffffffffffffffffffffffffffffffffff16146040805190810160405280601f81526020017f45564d52554e5f50524f5445435445445f53544154455f4d4f44494649454400815250901515613c77576040517f08c379a000000000000000000000000000000000000000000000000000000000815260040180806020018281038252838181518152602001915080519060200190808383600083811015610b15578181015183820152602001610afd565b5080613c81611303565b60408051808201909152601f81527f45564d52554e5f50524f5445435445445f53544154455f4d4f4449464945440060208201529114613d1d576040517f08c379a000000000000000000000000000000000000000000000000000000000815260040180806020018281038252838181518152602001915080519060200190808383600083811015610b15578181015183820152602001610afd565b505050505050509392505050565b828054600181600116156101000203166002900490600052602060002090601f016020900481019282601f10613d6c57805160ff1916838001178555613d99565b82800160010185558215613d99579182015b82811115613d99578251825591602001919060010190613d7e565b5061088b92610a379250905b8082111561088b5760008155600101613da55600a165627a7a723058205bd732f2055eaa6109cd5820e2f6964e5c2c2402a662261e93671e2ced90d6cc0029ebb05b386a8d34882b8711d156f463690983dc47815980fb82aeeff1aa43579e",
  "source": "/*\n * SPDX-License-Identitifer:    GPL-3.0-or-later\n */\n\npragma solidity 0.4.24;\n\nimport \"@aragon/os/contracts/apps/AragonApp.sol\";\nimport \"@aragon/os/contracts/common/IForwarder.sol\";\n\nimport \"@aragon/os/contracts/lib/math/SafeMath.sol\";\nimport \"@aragon/os/contracts/lib/math/SafeMath64.sol\";\n\nimport \"@aragon/apps-shared-minime/contracts/MiniMeToken.sol\";\n\n\ncontract Voting is IForwarder, AragonApp {\n    using SafeMath for uint256;\n    using SafeMath64 for uint64;\n\n    bytes32 public constant CREATE_VOTES_ROLE = keccak256(\"CREATE_VOTES_ROLE\");\n    bytes32 public constant MODIFY_SUPPORT_ROLE = keccak256(\"MODIFY_SUPPORT_ROLE\");\n    bytes32 public constant MODIFY_QUORUM_ROLE = keccak256(\"MODIFY_QUORUM_ROLE\");\n\n    uint64 public constant PCT_BASE = 10 ** 18; // 0% = 0; 1% = 10^16; 100% = 10^18\n\n    string private constant ERROR_NO_VOTE = \"VOTING_NO_VOTE\";\n    string private constant ERROR_INIT_PCTS = \"VOTING_INIT_PCTS\";\n    string private constant ERROR_CHANGE_SUPPORT_PCTS = \"VOTING_CHANGE_SUPPORT_PCTS\";\n    string private constant ERROR_CHANGE_QUORUM_PCTS = \"VOTING_CHANGE_QUORUM_PCTS\";\n    string private constant ERROR_INIT_SUPPORT_TOO_BIG = \"VOTING_INIT_SUPPORT_TOO_BIG\";\n    string private constant ERROR_CHANGE_SUPPORT_TOO_BIG = \"VOTING_CHANGE_SUPP_TOO_BIG\";\n    string private constant ERROR_CAN_NOT_VOTE = \"VOTING_CAN_NOT_VOTE\";\n    string private constant ERROR_CAN_NOT_EXECUTE = \"VOTING_CAN_NOT_EXECUTE\";\n    string private constant ERROR_CAN_NOT_FORWARD = \"VOTING_CAN_NOT_FORWARD\";\n    string private constant ERROR_NO_VOTING_POWER = \"VOTING_NO_VOTING_POWER\";\n\n    enum VoterState { Absent, Yea, Nay }\n\n    struct Vote {\n        bool executed;\n        uint64 startDate;\n        uint64 snapshotBlock;\n        uint64 supportRequiredPct;\n        uint64 minAcceptQuorumPct;\n        uint256 yea;\n        uint256 nay;\n        uint256 votingPower;\n        bytes executionScript;\n        mapping (address => VoterState) voters;\n    }\n\n    MiniMeToken public token;\n    uint64 public supportRequiredPct;\n    uint64 public minAcceptQuorumPct;\n    uint64 public voteTime;\n\n    // We are mimicing an array, we use a mapping instead to make app upgrade more graceful\n    mapping (uint256 => Vote) internal votes;\n    uint256 public votesLength;\n\n    event StartVote(uint256 indexed voteId, address indexed creator, string metadata);\n    event CastVote(uint256 indexed voteId, address indexed voter, bool supports, uint256 stake);\n    event ExecuteVote(uint256 indexed voteId);\n    event ChangeSupportRequired(uint64 supportRequiredPct);\n    event ChangeMinQuorum(uint64 minAcceptQuorumPct);\n\n    modifier voteExists(uint256 _voteId) {\n        require(_voteId < votesLength, ERROR_NO_VOTE);\n        _;\n    }\n\n    /**\n    * @notice Initialize Voting app with `_token.symbol(): string` for governance, minimum support of `@formatPct(_supportRequiredPct)`%, minimum acceptance quorum of `@formatPct(_minAcceptQuorumPct)`%, and a voting duration of `@transformTime(_voteTime)`\n    * @param _token MiniMeToken Address that will be used as governance token\n    * @param _supportRequiredPct Percentage of yeas in casted votes for a vote to succeed (expressed as a percentage of 10^18; eg. 10^16 = 1%, 10^18 = 100%)\n    * @param _minAcceptQuorumPct Percentage of yeas in total possible votes for a vote to succeed (expressed as a percentage of 10^18; eg. 10^16 = 1%, 10^18 = 100%)\n    * @param _voteTime Seconds that a vote will be open for token holders to vote (unless enough yeas or nays have been cast to make an early decision)\n    */\n    function initialize(\n        MiniMeToken _token,\n        uint64 _supportRequiredPct,\n        uint64 _minAcceptQuorumPct,\n        uint64 _voteTime\n    )\n        external\n        onlyInit\n    {\n        initialized();\n\n        require(_minAcceptQuorumPct <= _supportRequiredPct, ERROR_INIT_PCTS);\n        require(_supportRequiredPct < PCT_BASE, ERROR_INIT_SUPPORT_TOO_BIG);\n\n        token = _token;\n        supportRequiredPct = _supportRequiredPct;\n        minAcceptQuorumPct = _minAcceptQuorumPct;\n        voteTime = _voteTime;\n    }\n\n    /**\n    * @notice Change required support to `@formatPct(_supportRequiredPct)`%\n    * @param _supportRequiredPct New required support\n    */\n    function changeSupportRequiredPct(uint64 _supportRequiredPct)\n        external\n        authP(MODIFY_SUPPORT_ROLE, arr(uint256(_supportRequiredPct), uint256(supportRequiredPct)))\n    {\n        require(minAcceptQuorumPct <= _supportRequiredPct, ERROR_CHANGE_SUPPORT_PCTS);\n        require(_supportRequiredPct < PCT_BASE, ERROR_CHANGE_SUPPORT_TOO_BIG);\n        supportRequiredPct = _supportRequiredPct;\n\n        emit ChangeSupportRequired(_supportRequiredPct);\n    }\n\n    /**\n    * @notice Change minimum acceptance quorum to `@formatPct(_minAcceptQuorumPct)`%\n    * @param _minAcceptQuorumPct New acceptance quorum\n    */\n    function changeMinAcceptQuorumPct(uint64 _minAcceptQuorumPct)\n        external\n        authP(MODIFY_QUORUM_ROLE, arr(uint256(_minAcceptQuorumPct), uint256(minAcceptQuorumPct)))\n    {\n        require(_minAcceptQuorumPct <= supportRequiredPct, ERROR_CHANGE_QUORUM_PCTS);\n        minAcceptQuorumPct = _minAcceptQuorumPct;\n\n        emit ChangeMinQuorum(_minAcceptQuorumPct);\n    }\n\n    /**\n    * @notice Create a new vote about \"`_metadata`\"\n    * @param _executionScript EVM script to be executed on approval\n    * @param _metadata Vote metadata\n    * @return voteId Id for newly created vote\n    */\n    function newVote(bytes _executionScript, string _metadata) external auth(CREATE_VOTES_ROLE) returns (uint256 voteId) {\n        return _newVote(_executionScript, _metadata, true, true);\n    }\n\n    /**\n    * @notice Create a new vote about \"`_metadata`\"\n    * @param _executionScript EVM script to be executed on approval\n    * @param _metadata Vote metadata\n    * @param _castVote Whether to also cast newly created vote\n    * @param _executesIfDecided Whether to also immediately execute newly created vote if decided\n    * @return voteId id for newly created vote\n    */\n    function newVote(bytes _executionScript, string _metadata, bool _castVote, bool _executesIfDecided)\n        external\n        auth(CREATE_VOTES_ROLE)\n        returns (uint256 voteId)\n    {\n        return _newVote(_executionScript, _metadata, _castVote, _executesIfDecided);\n    }\n\n    /**\n    * @notice Vote `_supports ? 'yes' : 'no'` in vote #`_voteId`\n    * @dev Initialization check is implicitly provided by `voteExists()` as new votes can only be\n    *      created via `newVote(),` which requires initialization\n    * @param _voteId Id for vote\n    * @param _supports Whether voter supports the vote\n    * @param _executesIfDecided Whether the vote should execute its action if it becomes decided\n    */\n    function vote(uint256 _voteId, bool _supports, bool _executesIfDecided) external voteExists(_voteId) {\n        require(_canVote(_voteId, msg.sender), ERROR_CAN_NOT_VOTE);\n        _vote(_voteId, _supports, msg.sender, _executesIfDecided);\n    }\n\n    /**\n    * @notice Execute vote #`_voteId`\n    * @dev Initialization check is implicitly provided by `voteExists()` as new votes can only be\n    *      created via `newVote(),` which requires initialization\n    * @param _voteId Id for vote\n    */\n    function executeVote(uint256 _voteId) external voteExists(_voteId) {\n        _executeVote(_voteId);\n    }\n\n    // Forwarding fns\n\n    function isForwarder() external pure returns (bool) {\n        return true;\n    }\n\n    /**\n    * @notice Creates a vote to execute the desired action, and casts a support vote if possible\n    * @dev IForwarder interface conformance\n    * @param _evmScript Start vote with script\n    */\n    function forward(bytes _evmScript) public {\n        require(canForward(msg.sender, _evmScript), ERROR_CAN_NOT_FORWARD);\n        _newVote(_evmScript, \"\", true, true);\n    }\n\n    function canForward(address _sender, bytes) public view returns (bool) {\n        // Note that `canPerform()` implicitly does an initialization check itself\n        return canPerform(_sender, CREATE_VOTES_ROLE, arr());\n    }\n\n    // Getter fns\n\n    /**\n    * @dev Initialization check is implicitly provided by `voteExists()` as new votes can only be\n    *      created via `newVote(),` which requires initialization\n    */\n    function canExecute(uint256 _voteId) public view voteExists(_voteId) returns (bool) {\n        return _canExecute(_voteId);\n    }\n\n    /**\n    * @dev Initialization check is implicitly provided by `voteExists()` as new votes can only be\n    *      created via `newVote(),` which requires initialization\n    */\n    function canVote(uint256 _voteId, address _voter) public view voteExists(_voteId) returns (bool) {\n        return _canVote(_voteId, _voter);\n    }\n\n    function getVote(uint256 _voteId)\n        public\n        view\n        voteExists(_voteId)\n        returns (\n            bool open,\n            bool executed,\n            uint64 startDate,\n            uint64 snapshotBlock,\n            uint64 supportRequired,\n            uint64 minAcceptQuorum,\n            uint256 yea,\n            uint256 nay,\n            uint256 votingPower,\n            bytes script\n        )\n    {\n        Vote storage vote_ = votes[_voteId];\n\n        open = _isVoteOpen(vote_);\n        executed = vote_.executed;\n        startDate = vote_.startDate;\n        snapshotBlock = vote_.snapshotBlock;\n        supportRequired = vote_.supportRequiredPct;\n        minAcceptQuorum = vote_.minAcceptQuorumPct;\n        yea = vote_.yea;\n        nay = vote_.nay;\n        votingPower = vote_.votingPower;\n        script = vote_.executionScript;\n    }\n\n    function getVoterState(uint256 _voteId, address _voter) public view voteExists(_voteId) returns (VoterState) {\n        return votes[_voteId].voters[_voter];\n    }\n\n    // Internal fns\n\n    function _newVote(bytes _executionScript, string _metadata, bool _castVote, bool _executesIfDecided)\n        internal\n        returns (uint256 voteId)\n    {\n        uint64 snapshotBlock = getBlockNumber64() - 1; // avoid double voting in this very block\n        uint256 votingPower = token.totalSupplyAt(snapshotBlock);\n        require(votingPower > 0, ERROR_NO_VOTING_POWER);\n\n        voteId = votesLength++;\n\n        Vote storage vote_ = votes[voteId];\n        vote_.startDate = getTimestamp64();\n        vote_.snapshotBlock = snapshotBlock;\n        vote_.supportRequiredPct = supportRequiredPct;\n        vote_.minAcceptQuorumPct = minAcceptQuorumPct;\n        vote_.votingPower = votingPower;\n        vote_.executionScript = _executionScript;\n\n        emit StartVote(voteId, msg.sender, _metadata);\n\n        if (_castVote && _canVote(voteId, msg.sender)) {\n            _vote(voteId, true, msg.sender, _executesIfDecided);\n        }\n    }\n\n    function _vote(\n        uint256 _voteId,\n        bool _supports,\n        address _voter,\n        bool _executesIfDecided\n    ) internal\n    {\n        Vote storage vote_ = votes[_voteId];\n\n        // This could re-enter, though we can assume the governance token is not malicious\n        uint256 voterStake = token.balanceOfAt(_voter, vote_.snapshotBlock);\n        VoterState state = vote_.voters[_voter];\n\n        // If voter had previously voted, decrease count\n        if (state == VoterState.Yea) {\n            vote_.yea = vote_.yea.sub(voterStake);\n        } else if (state == VoterState.Nay) {\n            vote_.nay = vote_.nay.sub(voterStake);\n        }\n\n        if (_supports) {\n            vote_.yea = vote_.yea.add(voterStake);\n        } else {\n            vote_.nay = vote_.nay.add(voterStake);\n        }\n\n        vote_.voters[_voter] = _supports ? VoterState.Yea : VoterState.Nay;\n\n        emit CastVote(_voteId, _voter, _supports, voterStake);\n\n        if (_executesIfDecided && _canExecute(_voteId)) {\n            // We've already checked if the vote can be executed with `_canExecute()`\n            _unsafeExecuteVote(_voteId);\n        }\n    }\n\n    function _executeVote(uint256 _voteId) internal {\n        require(_canExecute(_voteId), ERROR_CAN_NOT_EXECUTE);\n        _unsafeExecuteVote(_voteId);\n    }\n\n    /**\n    * @dev Unsafe version of _executeVote that assumes you have already checked if the vote can be executed\n    */\n    function _unsafeExecuteVote(uint256 _voteId) internal {\n        Vote storage vote_ = votes[_voteId];\n\n        vote_.executed = true;\n\n        bytes memory input = new bytes(0); // TODO: Consider input for voting scripts\n        runScript(vote_.executionScript, input, new address[](0));\n\n        emit ExecuteVote(_voteId);\n    }\n\n    function _canExecute(uint256 _voteId) internal view returns (bool) {\n        Vote storage vote_ = votes[_voteId];\n\n        if (vote_.executed) {\n            return false;\n        }\n\n        // Voting is already decided\n        if (_isValuePct(vote_.yea, vote_.votingPower, vote_.supportRequiredPct)) {\n            return true;\n        }\n\n        // Vote ended?\n        if (_isVoteOpen(vote_)) {\n            return false;\n        }\n        // Has enough support?\n        uint256 totalVotes = vote_.yea.add(vote_.nay);\n        if (!_isValuePct(vote_.yea, totalVotes, vote_.supportRequiredPct)) {\n            return false;\n        }\n        // Has min quorum?\n        if (!_isValuePct(vote_.yea, vote_.votingPower, vote_.minAcceptQuorumPct)) {\n            return false;\n        }\n\n        return true;\n    }\n\n    function _canVote(uint256 _voteId, address _voter) internal view returns (bool) {\n        Vote storage vote_ = votes[_voteId];\n\n        return _isVoteOpen(vote_) && token.balanceOfAt(_voter, vote_.snapshotBlock) > 0;\n    }\n\n    function _isVoteOpen(Vote storage vote_) internal view returns (bool) {\n        return getTimestamp64() < vote_.startDate.add(voteTime) && !vote_.executed;\n    }\n\n    /**\n    * @dev Calculates whether `_value` is more than a percentage `_pct` of `_total`\n    */\n    function _isValuePct(uint256 _value, uint256 _total, uint256 _pct) internal pure returns (bool) {\n        if (_total == 0) {\n            return false;\n        }\n\n        uint256 computedPct = _value.mul(PCT_BASE) / _total;\n        return computedPct > _pct;\n    }\n}\n",
  "sourcePath": "@aragon/apps-voting/contracts/Voting.sol",
  "compiler": {
    "name": "solc",
    "version": "0.4.24+commit.e67f0147.Emscripten.clang"
  },
  "schemaVersion": "2.0.1",
  "updatedAt": "2019-08-16T16:44:36.215Z"
}